:020000040800F2
:100000000000022095410008754000087B40000870
:1000100081400008874000088D4000080000000073
:1000200000000000000000000000000081C2000885
:100030009340000800000000D1C40008019E0008A1
:10004000E5410008E5410008E5410008E5410008F8
:10005000E5410008E5410008E5410008E5410008E8
:10006000E5410008E5410008E5410008E5410008D8
:10007000E5410008E5410008E5410008E5410008C8
:10008000E5410008E5410008E5410008E5410008B8
:10009000E5410008E5410008E5410008E5410008A8
:1000A000E5410008A1400008E5410008E5410008DD
:1000B000E5410008E5410008B5400008E5410008B9
:1000C000E5410008E5410008E5410008E541000878
:1000D000E5410008E5410008E5410008C940000885
:1000E000E5410008E5410008E5410008E541000858
:1000F000E5410008E5410008E5410008E541000848
:10010000E5410008E5410008E5410008E541000837
:10011000E5410008E5410008DD400008E541000830
:10012000F1400008E5410008E5410008E54100080C
:10013000E5410008E5410008E5410008E541000807
:10014000E5410008E5410008E5410008E5410008F7
:10015000E5410008E5410008E5410008E5410008E7
:10016000E5410008E5410008E5410008E5410008D7
:10017000E5410008E5410008E541000800000000F5
:08018000E5410008E54100081B
:1001900010B5054C237833B9044B13B10448AFF3C1
:1001A00000800123237010BD8800002000000000A3
:1001B000C0D7000808B5034B1BB103490348AFF390
:1001C000008008BD000000008C000020C0D700089F
:1001D00001F0FF01102A2BDB10F0070F08D010F8F8
:1001E000013B013A8B422DD010F0070F42B3F6D1FC
:1001F000F0B441EA012141EA014122F007047FF015
:1002000000070023F0E80256083C85EA010586EA6B
:10021000010685FA47F5A3FA87F586FA47F6A5FAA7
:1002200087F68EB9EED1F0BC01F0FF0102F00702B3
:1002300032B110F8013B013A83EA010313B1F8D15E
:100240000020704701387047002D06BF354603383F
:10025000073815F0010F07D1013015F4807F02BF78
:10026000013015F4C03F0130F0BC0138704700BFC9
:1002700081F0004102E000BF83F0004330B54FEA57
:1002800041044FEA430594EA050F08BF90EA020FC4
:100290001FBF54EA000C55EA020C7FEA645C7FEA57
:1002A000655C00F0E2804FEA5454D4EB5555B8BF7A
:1002B0006D420CDD2C4480EA020281EA030382EAEB
:1002C000000083EA010180EA020281EA0303362D7D
:1002D00088BF30BD11F0004F4FEA01314FF4801C50
:1002E0004CEA113102D0404261EB410113F0004F62
:1002F0004FEA03334CEA133302D0524263EB430319
:1003000094EA050F00F0A780A4F10104D5F1200EB6
:100310000DDB02FA0EFC22FA05F2801841F1000111
:1003200003FA0EF2801843FA05F359410EE0A5F1E5
:1003300020050EF1200E012A03FA0EFC28BF4CF016
:10034000020C43FA05F3C01851EBE37101F00045CC
:1003500007D54FF0000EDCF1000C7EEB00006EEBD9
:100360000101B1F5801F1BD3B1F5001F0CD3490863
:100370005FEA30004FEA3C0C04F101044FEA4452BA
:1003800012F5800F80F09A80BCF1004F08BF5FEA41
:10039000500C50F1000041EB045141EA050130BD21
:1003A0005FEA4C0C404141EB0101013C28BFB1F533
:1003B000801FE9D291F0000F04BF01460020B1FA7E
:1003C00081F308BF2033A3F10B03B3F120020CDA51
:1003D0000C3208DD02F1140CC2F10C0201FA0CF02F
:1003E00021FA02F10CE002F11402D8BFC2F1200C94
:1003F00001FA02F120FA0CFCDCBF41EA0C0190404A
:10040000E41AA2BF01EB0451294330BD6FEA040492
:100410001F3C1CDA0C340EDC04F11404C4F120027D
:1004200020FA04F001FA02F340EA030021FA04F38F
:1004300045EA030130BDC4F10C04C4F1200220FAE6
:1004400002F001FA04F340EA0300294630BD21FA24
:1004500004F0294630BD94F0000F83F4801306BFEA
:1004600081F480110134013D4EE77FEA645C18BFDE
:100470007FEA655C29D094EA050F08BF90EA020F75
:1004800005D054EA000C04BF1946104630BD91EA6D
:10049000030F1EBF0021002030BD5FEA545C05D170
:1004A0004000494128BF41F0004130BD14F58004AF
:1004B0003CBF01F5801130BD01F0004545F0FE4123
:1004C00041F470014FF0000030BD7FEA645C1ABF58
:1004D000194610467FEA655C1CBF0B46024650EA8F
:1004E000013406BF52EA033591EA030F41F40021BB
:1004F00030BD00BF90F0000F04BF0021704730B541
:100500004FF4806404F132044FF000054FF0000115
:1005100050E700BF90F0000F04BF0021704730B5D6
:100520004FF4806404F1320410F0004548BF4042AB
:100530004FF000013EE700BF42004FEAE2014FEA00
:1005400031014FEA02701FBF12F07F4393F07F4FDB
:1005500081F06051704732F07F4208BF704793F0DE
:100560007F4F04BF41F40021704730B54FF46074F1
:1005700001F0004521F000411CE700BF50EA0102F4
:1005800008BF704730B54FF000050AE050EA01029D
:1005900008BF704730B511F0004502D5404261EB0D
:1005A00041014FF4806404F132045FEA915C3FF44E
:1005B000D8AE4FF003025FEADC0C18BF03325FEAEB
:1005C000DC0C18BF033202EBDC02C2F1200300FA9C
:1005D00003FC20FA02F001FA03FE40EA0E0021FAC1
:1005E00002F11444BDE600BF70B54FF0FF0C4CF4AF
:1005F000E06C1CEA11541DBF1CEA135594EA0C0F61
:1006000095EA0C0F00F0DEF82C4481EA030621EA9B
:100610004C5123EA4C5350EA013518BF52EA0335D6
:1006200041F4801143F4801338D0A0FB02CE4FF088
:100630000005E1FB02E506F00042E0FB03E54FF0B8
:100640000006E1FB03569CF0000F18BF4EF0010EB0
:10065000A4F1FF04B6F5007F64F5407404D25FEAAC
:100660004E0E6D4146EB060642EAC62141EA55515F
:100670004FEAC52040EA5E504FEACE2EB4F1FD0CA1
:1006800088BFBCF5E06F1ED8BEF1004F08BF5FEA1F
:10069000500E50F1000041EB045170BD06F00046D1
:1006A00046EA010140EA020081EA0301B4EB5C047E
:1006B000C2BFD4EB0C0541EA045170BD41F4801176
:1006C0004FF0000E013C00F3AB8014F1360FDEBF9B
:1006D000002001F0004170BDC4F10004203C35DA77
:1006E0000C341BDC04F11404C4F1200500FA05F3FA
:1006F00020FA04F001FA05F240EA020001F000429B
:1007000021F0004110EBD37021FA04F642EB060110
:100710005EEA430E08BF20EAD37070BDC4F10C043A
:10072000C4F1200500FA04F320FA05F001FA04F2FE
:1007300040EA020001F0004110EBD37041F10001EA
:100740005EEA430E08BF20EAD37070BDC4F12005F5
:1007500000FA05F24EEA020E20FA04F301FA05F25D
:1007600043EA020321FA04F001F0004121FA04F205
:1007700020EA020000EBD3705EEA430E08BF20EAD5
:10078000D37070BD94F0000F0FD101F0004640000F
:1007900041EB010111F4801F08BF013CF7D041EA91
:1007A000060195F0000F18BF704703F00046520095
:1007B00043EB030313F4801F08BF013DF7D043EA66
:1007C0000603704794EA0C0F0CEA135518BF95EA1C
:1007D0000C0F0CD050EA410618BF52EA4306D1D1A3
:1007E00081EA030101F000414FF0000070BD50EAC2
:1007F000410606BF1046194652EA430619D094EA4C
:100800000C0F02D150EA013613D195EA0C0F05D135
:1008100052EA03361CBF104619460AD181EA030189
:1008200001F0004141F0FE4141F470014FF0000041
:1008300070BD41F0FE4141F4780170BD70B54FF0DC
:10084000FF0C4CF4E06C1CEA11541DBF1CEA13555C
:1008500094EA0C0F95EA0C0F00F0A7F8A4EB05043E
:1008600081EA030E52EA03354FEA013100F0888035
:100870004FEA03334FF0805545EA131343EA1263FE
:100880004FEA022245EA111545EA10654FEA0026B3
:100890000EF000419D4208BF964244F1FD0404F56C
:1008A000407402D25B084FEA3202B61A65EB0305C8
:1008B0005B084FEA32024FF480104FF4002CB6EB85
:1008C000020E75EB030E22BFB61A754640EA0C0005
:1008D0005B084FEA3202B6EB020E75EB030E22BF45
:1008E000B61A754640EA5C005B084FEA3202B6EB86
:1008F000020E75EB030E22BFB61A754640EA9C0045
:100900005B084FEA3202B6EB020E75EB030E22BF14
:10091000B61A754640EADC0055EA060E18D04FEAD2
:10092000051545EA16754FEA06164FEAC30343EA72
:1009300052734FEAC2025FEA1C1CC0D111F4801F3F
:100940000BD141EA00014FF000004FF0004CB6E738
:1009500011F4801F04BF01430020B4F1FD0C88BFD7
:10096000BCF5E06F3FF6AFAEB5EB030C04BFB6EBE2
:10097000020C5FEA500C50F1000041EB045170BDD5
:100980000EF0004E4EEA113114EB5C04C2BFD4EB02
:100990000C0541EA045170BD41F480114FF0000E86
:1009A000013C90E645EA060E8DE60CEA135594EA02
:1009B0000C0F08BF95EA0C0F3FF43BAF94EA0C0F05
:1009C0000AD150EA01347FF434AF95EA0C0F7FF47A
:1009D00025AF104619462CE795EA0C0F06D152EACE
:1009E00003353FF4FDAE1046194622E750EA4106B2
:1009F00018BF52EA43067FF4C5AE50EA41047FF4C3
:100A00000DAF52EA43057FF4EBAE12E74FF0FF3C27
:100A100006E000BF4FF0010C02E000BF4FF0010CF8
:100A20004DF804CD4FEA410C7FEA6C5C4FEA430C71
:100A300018BF7FEA6C5C1BD001B050EA410C0CBFC0
:100A400052EA430C91EA030F02BF90EA020F002022
:100A5000704710F1000F91EA030F58BF994208BF89
:100A600090422CBFD8176FEAE37040F00100704746
:100A70004FEA410C7FEA6C5C02D150EA013C07D19D
:100A80004FEA430C7FEA6C5CD6D152EA033CD3D0E8
:100A90005DF8040B704700BF8446104662468C46E2
:100AA0001946634600E000BF01B5FFF7B7FF002815
:100AB00048BF10F1000F01BD4DF808EDFFF7F4FF3E
:100AC0000CBF012000205DF808FB00BF4DF808EDC9
:100AD000FFF7EAFF34BF012000205DF808FB00BFEC
:100AE0004DF808EDFFF7E0FF94BF012000205DF80E
:100AF00008FB00BF4DF808EDFFF7CEFF94BF0120C3
:100B000000205DF808FB00BF4DF808EDFFF7C4FFBB
:100B100034BF012000205DF808FB00BF4FEA410C04
:100B20007FEA6C5C02D150EA013C0AD14FEA430CE7
:100B30007FEA6C5C02D152EA033C02D14FF0000024
:100B400070474FF0010070474FEA410212F5001262
:100B500015D211D56FF47873B3EB625212D94FEA04
:100B6000C12343F0004343EA505311F0004F23FAEE
:100B700002F018BF404270474FF00000704750EA43
:100B8000013005D111F0004008BF6FF00040704700
:100B90004FF00000704700BF4A0011D212F500125A
:100BA00011D20DD56FF47873B3EB62520ED44FEAC5
:100BB000C12343F0004343EA505323FA02F0704745
:100BC0004FF00000704750EA013002D14FF0FF3083
:100BD00070474FF0000070474FEA4102B2F1E04326
:100BE00024BFB3F5001CDCF1FE5C0DD901F0004C14
:100BF0004FEAC0024CEA5070B2F1004F40EB830064
:100C000008BF20F00100704711F0804F21D113F18F
:100C10003872BCBF01F00040704741F480114FEAC8
:100C20005252C2F11802C2F1200C10FA0CF320FA51
:100C300002F018BF40F001004FEAC1234FEAD3236E
:100C400003FA0CFC40EA0C0023FA02F34FEA4303D8
:100C5000CCE77FEA625307D150EA01331EBF4FF061
:100C6000FE4040F44000704701F0004040F0FE407C
:100C700040F40000704700BF53B94AB9002908BFCB
:100C800000281CBF4FF0FF314FF0FF3000F074B967
:100C9000ADF1080C6DE904CE00F006F8DDF804E0D3
:100CA000DDE9022304B070472DE9F047089D0446B2
:100CB0008E46002B4DD18A42944669D9B2FA82F20F
:100CC00052B101FA02F3C2F1200120FA01F10CFA4B
:100CD00002FC41EA030E94404FEA1C48210CBEFB83
:100CE000F8F61FFA8CF708FB16E341EA034306FB0C
:100CF00007F199420AD91CEB030306F1FF3080F09B
:100D00001F81994240F21C81023E63445B1AA4B2E7
:100D1000B3FBF8F008FB103344EA034400FB07F789
:100D2000A7420AD91CEB040400F1FF3380F00A81CA
:100D3000A74240F207816444023840EA0640E41BBF
:100D400000261DB1D4400023C5E900433146BDE86B
:100D5000F0878B4209D9002D00F0EF800026C5E90D
:100D6000000130463146BDE8F087B3FA83F6002E25
:100D70004AD18B4202D3824200F2F980841A61EB9D
:100D8000030301209E46002DE0D0C5E9004EDDE7BB
:100D900002B9FFDEB2FA82F2002A40F09280A1EBA3
:100DA0000C014FEA1C471FFA8CFE0126200CB1FBF8
:100DB000F7F307FB131140EA01410EFB03F08842F1
:100DC00008D91CEB010103F1FF3802D2884200F27E
:100DD000CB804346091AA4B2B1FBF7F007FB101110
:100DE00044EA01440EFB00FEA64508D91CEB0404AE
:100DF00000F1FF3102D2A64500F2BB800846A4EB09
:100E00000E0440EA03409CE7C6F12007B34022FAF3
:100E100007FC4CEA030C20FA07F401FA06F31C4322
:100E2000F9404FEA1C4900FA06F3B1FBF9F8200C2F
:100E30001FFA8CFE09FB181140EA014108FB0EF075
:100E4000884202FA06F20BD91CEB010108F1FF3AC5
:100E500080F08880884240F28580A8F102086144D1
:100E6000091AA4B2B1FBF9F009FB101144EA0141DF
:100E700000FB0EFE8E4508D91CEB010100F1FF348A
:100E80006CD28E456AD90238614440EA0840A0FB22
:100E90000294A1EB0E01A142C846A64656D353D0F8
:100EA0005DB1B3EB080261EB0E0101FA07F722FA1C
:100EB00006F3F1401F43C5E9007100263146BDE845
:100EC000F087C2F12003D8400CFA02FC21FA03F3A8
:100ED000914001434FEA1C471FFA8CFEB3FBF7F029
:100EE00007FB10360B0C43EA064300FB0EF69E424E
:100EF00004FA02F408D91CEB030300F1FF382FD2E7
:100F00009E422DD9023863449B1B89B2B3FBF7F68E
:100F100007FB163341EA034106FB0EF38B4208D967
:100F20001CEB010106F1FF3816D28B4214D9023EA8
:100F30006144C91A46EA004638E72E46284605E7C6
:100F40000646E3E61846F8E64B45A9D2B9EB020897
:100F500064EB0C0E0138A3E74646EAE7204694E727
:100F60004046D1E7D0467BE7023B614432E730465A
:100F700009E76444023842E7704700BF80B582B099
:100F800000AF0023FB7126E0FB79503BDBB2002170
:100F9000184600F02BF80021002000F027F800216F
:100FA000102000F023F80023BB710DE0BA79FB7923
:100FB0000D49D2000A4413441B780121184600F061
:100FC00015F8BB790133BB7197F90630002BEDDAC8
:100FD000FB790133FB71FB79072BD5D900BF00BF2B
:100FE0000837BD4680BD00BF6003002080B584B0D7
:100FF00000AF03460A46FB711346BB71BB79002B59
:1010000006D001224FF480711C4804F079FD05E000
:1010100000224FF48071194804F072FD0023FB7325
:101020001EE000222021154804F06AFD97F90730E0
:10103000002B05DA01224021104804F061FD04E094
:10104000002240210D4804F05BFD012220210B48C5
:1010500004F056FDFB795B00FB71FB7B0133FB73F6
:10106000FB7B072BDDD901224FF48071034804F08C
:1010700047FD00BF1037BD4680BD00BF00100240D5
:1010800080B582B000AF0023FB7114E00023BB7178
:101090000AE0BA79FB790C49D2000A4413440022D1
:1010A0001A70BB790133BB7197F90630002BF0DA67
:1010B000FB790133FB71FB79072BE7D9FFF75EFF63
:1010C00000BF0837BD4680BD6003002080B485B0F6
:1010D00000AF0346FB710B46BB7113467B710023C7
:1010E000FB7397F90730002B41DBBB793F2B3ED8D0
:1010F000BB79DB08DBB2C3F10703BB73BB7903F039
:1011000007037B737B7BC3F10703012202FA03F31E
:10111000FB737B79002B12D0FA79BB7B1749D20085
:101120000A4413441878FA79BB7BF97B0143C8B2AF
:101130001249D2000A44134402461A7018E0FA79A0
:10114000BB7B0E49D2000A4413441B785AB297F96C
:101150000F30DB435BB2134059B2FA79BB7BC8B2A4
:101160000649D2000A44134402461A7000E000BF48
:101170001437BD465DF8047B704700BF6003002054
:1011800090B585B000AF0446084611461A4623467E
:10119000FB710346BB710B467B7113463B71BB79F8
:1011A0003B737B79203B7B710023BB734DE03B7924
:1011B0000C2B0BD17A79B97B284813465B0013447A
:1011C0009B0003440B441B78FB7307E07A79BB7BDD
:1011D000234912010A4413441B78FB7300237B73D9
:1011E0002DE097F90F30002B07DA97F82020B97916
:1011F000FB791846FFF76AFF0CE097F82030002BC8
:101200000CBF01230023DBB21A46B979FB791846DB
:10121000FFF75CFFFB7B5B00FB73BB790133BB71AA
:10122000BA793B7BD21A3B799A4205D13B7BBB71A1
:10123000FB790133FB7105E07B7B01337B737B7BA7
:10124000072BCED9BB7B0133BB73BA7B3B799A4268
:10125000ADD300BF00BF1437BD4690BD24D90008F0
:1012600098DD000880B584B002AF03463A60FB7198
:101270000B46BB711FE0FB797A2B04D90023FB716D
:10128000BB791033BB71BB793A2B05D90023FB71B5
:10129000FB79BB71FFF7F4FE3B681A78B979F879EE
:1012A000012300930C23FFF76BFFFB790833FB71DD
:1012B0003B6801333B603B681B78002BDBD100BFF0
:1012C00000BF0837BD4680BD80B500AF05F0C8FB44
:1012D000414B1B6F404A23F0010313673E4B1B6FCA
:1012E0003D4A23F00403136705F0CEFB0022802162
:1012F0003A4804F005FC642002F0B8FF0122802186
:10130000364804F0FDFB0021AE20FFF76FFE002100
:10131000D520FFF76BFE00215020FFF767FE00216C
:10132000A820FFF763FE00213F20FFF75FFE0021AA
:10133000D320FFF75BFE00210020FFF757FE0021BE
:101340004020FFF753FE00218D20FFF74FFE0021C4
:101350001420FFF74BFE00212020FFF747FE00215D
:101360000220FFF743FE0021A120FFF73FFE0021EE
:10137000C020FFF73BFE0021DA20FFF737FE0021F7
:101380001220FFF733FE00218120FFF72FFE0021FE
:10139000EF20FFF72BFE0021D920FFF727FE0021C9
:1013A000F120FFF723FE0021DB20FFF71FFE0021C5
:1013B0003020FFF71BFE0021A420FFF717FE0021BD
:1013C000A620FFF713FE0021AF20FFF70FFEFFF767
:1013D00057FE00BF80BD00BF003802400010024031
:1013E00080B400AF054B00221A60054B00221A6042
:1013F00000BFBD465DF8047B704700BF9C0700201E
:10140000A007002000000000B0B588B000AF7860F1
:101410003960914A3B68136000F0C6F98F4B1B6836
:1014200092221A644FF000024FF00003C7E906232E
:10143000894B1B68012B05D14FF00002884BC7E98F
:10144000062309E0844B1B68B3F1FF3F04D14FF042
:101450000002834BC7E9062300237B6181494FF0DB
:1014600000024FF00003C1E900234FF000024FF0EB
:101470000003C7E902237B680A2B08DD7A4B1B684F
:10148000754A126802FB03F3784A136007E0724B57
:101490001B6840F24C4202FB03F3744A1360734B27
:1014A0001B68734A13600A2008F0BBFD3B68012BE0
:1014B0002BD16C4BD3E900014FF000026D4BFFF7CD
:1014C00093F802460B4614461D464FF000024FF0BB
:1014D0000003D7E90201FFF787F802460B462046D2
:1014E0002946FEF7CBFE02460B461046194658A386
:1014F000D3E90023FEF7C2FE02460B46104619460A
:10150000FFF722FB03467B612CE03B68B3F1FF3F12
:1015100028D1544BD3E900014FF00002554BFFF79F
:1015200063F802460B4614461D464FF000024FF08A
:101530000003D7E90201FFF757F802460B462046A1
:101540002946FEF79BFE02460B4641A1D1E9000168
:10155000FEF792FE02460B4610461946FFF7F4FAD4
:1015600003467B61444B1B78372B1BD13B68012B17
:101570000AD17B698D2B01DC8D237B617B69962BE6
:1015800010DD95237B610DE03B68B3F1FF3F09D18E
:101590007B698F2B01DC8E237B617B69962B01DDC0
:1015A00095237B612D4B1B6892221A64052008F05D
:1015B00038FD2A4B1B687A691A64052008F031FD52
:1015C000284BD3E90023D7E90201FEF757FE024674
:1015D0000B46C7E90223294B1A68294B1B681344A1
:1015E0001846FEF797FF04460D467B6807EE903AD3
:1015F000B8EEE77ADFED236AC7EE267A77EEA77AB0
:1016000017EE900AFEF798FFD7E90623FEF7ECFFE6
:1016100002460B4620462946FFF76CFA0346002B8C
:1016200002D0FFF7DDFE00E03DE7FFF7D9FE134BE8
:1016300000221A60124B00221A60084B1B6892228B
:101640001A6400BF2037BD46B0BD00BFAFF30080B5
:10165000000000000050624000000020A0010020B7
:101660000060984018280020080000209C070020F7
:10167000A007002000002440100000200C280020BB
:1016800010280020EC51A84180B500AF00220421B1
:10169000044804F035FA01220821024804F030FA27
:1016A00000BF80BD0000024080B500AF01220421D0
:1016B000044804F025FA00220821024804F020FA28
:1016C00000BF80BD0000024080B500AF0022202195
:1016D000044804F015FA01221021024804F010FA1F
:1016E00000BF80BD0000024080B500AF0122202174
:1016F000044804F005FA00221021024804F000FA20
:1017000000BF80BD0000024080B584B002AF034638
:101710003960FB710F4AFB7913700F4B1B789BB23A
:101720005B0099B20A23009301230A4A0B4804F094
:1017300045FB094B1B789BB25B0099B214230093C5
:1017400002233A68054804F037FC00BF0837BD465D
:1017500080BD00BF88070020040000204C0100204D
:1017600080B584B002AF03460A46FB711346BB71D5
:101770000A4AFB791370094ABB795370084B1B78EE
:101780009BB25B0099B2142300930223034A0548DD
:1017900004F014FB00BF0837BD4680BD8807002059
:1017A000040000204C01002080B500AF002106207D
:1017B000FFF7D6FF0A2008F034FC80210320FFF752
:1017C000CFFF0A2008F02DFC07210720FFF7C8FFF4
:1017D0000A2008F026FC01210620FFF7C1FF0A209D
:1017E00008F01FFC20217F20FFF7BAFF0A2008F035
:1017F00018FC2F210120FFF7B3FF0A2008F011FC8D
:1018000000210020FFF7ACFF0A2008F00AFC0021AD
:101810007F20FFF7A5FF0A2008F003FC0021072026
:10182000FFF79EFF0A2008F0FCFB00BF80BD000010
:1018300080B584B000AF7860224B1B684FF4827291
:101840001A644FF4FA7008F0D1FB1F4B4FF0FF32CF
:101850001A601E494FF000024FF00003C1E9002357
:101860001B4B1B681B4A13601A4B1B681A4A1360F8
:1018700002E00A2008F0D5FB7B685B421846FEF7C1
:1018800049FE124BD3E90023FFF720F90346002B52
:10189000EFD1FFF7A5FD4FF000024FF00003C7E9BD
:1018A00002230E4B00221A600D4B00221A60054BDA
:1018B0001B6892221A64642008F098FB00BF10375E
:1018C000BD4680BDA0010020282800201828002047
:1018D0000C0000209C070020A00700200C280020FE
:1018E0001028002080B584B000AF7860204B1B68C2
:1018F00064221A644FF4FA7008F078FB1D4B012241
:101900001A601D494FF000024FF00003C1E90023A7
:101910001A4B1B681A4A1360194B1B68194A13604B
:101920004FF000024FF00003C7E9022302E00A2053
:1019300008F077FB7868FEF7EDFD0F4BD3E9002345
:10194000FFF7E2F80346002BF1D1FFF749FD0E4BFC
:1019500000221A600D4B00221A60054B1B68922270
:101960001A64642008F042FB00BF1037BD4680BDFA
:10197000A001002028280020182800200C000020AA
:10198000A00700209C0700200C2800201028002021
:1019900080B582B000AF7860074B1B6893221A6451
:1019A000C82008F03EFB4FF0FF317868FFF72CFDB0
:1019B00000BF0837BD4680BDA001002080B500AF44
:1019C00002F012FC00F08CF800F014FC00F01CFB9C
:1019D00000F002FA00F062F900F0C2FB00F050FAE9
:1019E00000F0A2FA00F02CF900F0E4FB00F0D6F8C9
:1019F0000021254805F062FFFFF766FC3C212348E3
:101A000006F0DEF83C21224806F0DAF800212148F1
:101A100005F032FE04211F4805F02EFE0C211E4861
:101A200005F02AFE04221D491D4807F095FA08F02A
:101A300001FA1C4A00211C4808F046FA03461B4ADA
:101A400013601B4A00211B4808F03EFA03461A4A5D
:101A500013601A4A00211A4808F036FA0346194A58
:101A60001360194A0021194808F02EFA0346184A53
:101A70001360184A0021184808F026FA0346174A4E
:101A8000136008F0FBF9FEE778020020E80100206F
:101A900030020020C0020020A001002060070020CA
:101AA0000803002070D80008812500084C0300209E
:101AB00094D80008E126000850030020B8D8000898
:101AC000ED26000854030020DCD800089128000807
:101AD0005803002000D90008412A00085C030020B8
:101AE00080B594B000AF07F12003302200211846E2
:101AF0000AF0D4FF07F10C0300221A605A609A60C2
:101B0000DA601A610023BB60224B1B6C214A43F050
:101B1000805313641F4B1B6C03F08053BB60BB6886
:101B200000237B601C4B1B681B4A43F480431360FB
:101B3000194B1B6803F480437B607B6802233B6284
:101B40000123FB6210233B630023BB6307F12003E7
:101B5000184604F0ADFF0346002B01D001F030FF22
:101B60000F23FB6000233B6100237B614FF4805314
:101B7000BB610023FB6107F10C030021184605F04F
:101B80000FFA0346002B01D001F01AFF00BF5037B7
:101B9000BD4680BD003802400070004080B584B072
:101BA00000AF3B4600221A605A609A60DA60214B0F
:101BB000214A1A601F4B00225A601E4B00229A6075
:101BC0001C4B00221A611B4B00221A76194B002273
:101BD00083F82020174B0022DA62164B174A9A62CC
:101BE000144B0022DA60134B0122DA61114B002200
:101BF00083F830200F4B01225A610E4802F05AFB45
:101C00000346002B01D001F0DBFE00233B600123E3
:101C10007B600023BB603B461946064802F050FE3D
:101C20000346002B01D001F0CBFE00BF1037BD46AC
:101C300080BD00BFA4000020002001400100000F73
:101C400080B500AF124B134A1A60114B124A5A600A
:101C50000F4B00229A600E4B0022DA600C4B4FF4BF
:101C600080421A610A4B00225A61094B00229A6194
:101C7000074B0022DA61064B00221A62044803F087
:101C800059FF0346002B01D001F09AFE00BF80BD32
:101C90004C01002000540040A086010080B596B0A1
:101CA00000AF07F1480300221A605A609A60DA60B8
:101CB00007F1400300221A605A6007F12403002252
:101CC0001A605A609A60DA601A615A619A613B1D23
:101CD0002022002118460AF0E1FE3D4B3D4A1A60E1
:101CE0003B4BA0225A603A4B00229A60384B4FF48B
:101CF0007A72DA60364B00221A61354B00225A6143
:101D0000334B80229A61324805F09CFB0346002B3E
:101D100001D001F055FE4FF48053BB6407F1480336
:101D200019462B4806F040FA0346002B01D001F07B
:101D300047FE274805F046FC0346002B01D001F082
:101D40003FFE00233B6400237B6407F140031946F8
:101D50001F4806F08DFF0346002B01D001F030FE36
:101D600060237B620023BB620023FB6204237B634E
:101D70000023BB630023FB6307F124030C221946F5
:101D8000134806F04FF90346002B01D001F018FE6E
:101D900000237B600023BB600023FB6000233B61CA
:101DA00000237B614FF40053BB6100233B623B1D6A
:101DB0001946074806F0D8FF0346002B01D001F072
:101DC000FFFD034802F028F800BF5837BD4680BD2C
:101DD000A00100200000014080B58CB000AF07F1E9
:101DE0000C032422002118460AF058FE3B1D002255
:101DF0001A605A60214B4FF080421A601F4B00223C
:101E00005A601E4B00229A601C4B4FF6FF72DA603C
:101E10001A4B00221A61194B00229A610323FB60BE
:101E200000233B6101237B610023BB610023FB6135
:101E300000233B6201237B620023BB620023FB6221
:101E400007F10C0319460D4805F014FE0346002B5C
:101E500001D001F0B5FD00237B600023BB603B1D7A
:101E60001946064806F004FF0346002B01D001F096
:101E7000A7FD00BF3037BD4680BD00BFE801002090
:101E800080B58CB000AF07F10C0324220021184666
:101E90000AF004FE3B1D00221A605A60204B214AC2
:101EA0001A601F4B00225A601D4B00229A601C4B87
:101EB0004FF6FF72DA601A4B00221A61184B0022AB
:101EC0009A610323FB6000233B6101237B610023B4
:101ED000BB610023FB6100233B6201237B62002383
:101EE000BB620023FB6207F10C0319460C4805F0A6
:101EF000C1FD0346002B01D001F062FD00237B6091
:101F00000023BB603B1D1946054806F0B1FE0346A1
:101F1000002B01D001F054FD00BF3037BD4680BD1D
:101F2000300200200004004080B58AB000AF07F105
:101F3000180300221A605A609A60DA6007F11003F1
:101F400000221A605A603B4600221A605A609A606A
:101F5000DA602B4B2B4A1A60294B0F225A60284B10
:101F600000229A60264B4FF6FE72DA60244B002264
:101F70001A61234B00229A61214805F063FA034657
:101F8000002B01D001F01CFD4FF48053BB6107F121
:101F9000180319461A4806F007F90346002B01D02A
:101FA00001F00EFD164805F02FFC0346002B01D072
:101FB00001F006FD00233B6100237B6107F1100364
:101FC00019460F4806F054FE0346002B01D001F0DD
:101FD000F7FC00233B6001237B600023BB600023F0
:101FE000FB603B4600221946054805F07FFF03468B
:101FF000002B01D001F0E4FC00BF2837BD4680BDB6
:10200000780200200008004080B596B000AF07F1CC
:10201000480300221A605A609A60DA6007F14003B0
:1020200000221A605A6007F1240300221A605A60E5
:102030009A60DA601A615A619A613B1D2022002180
:1020400018460AF02BFD444B444A1A60424B0022CA
:102050005A60414B00229A603F4B41F61F42DA60C2
:102060003D4B00221A613C4B00225A613A4B002240
:102070009A61394805F0E6F90346002B01D001F0DA
:102080009FFC4FF48053BB6407F148031946324864
:1020900006F08AF80346002B01D001F091FC2E488F
:1020A00005F090FA0346002B01D001F089FC0023D3
:1020B0003B6400237B6407F140031946264806F081
:1020C000D7FD0346002B01D001F07AFC60237B6230
:1020D0000023BB620023FB6200233B6300237B637E
:1020E0000023BB630023FB6307F12403002219468E
:1020F000194805F097FF0346002B01D001F060FC62
:1021000007F1240304221946134805F08BFF034608
:10211000002B01D001F054FC00237B600023BB6046
:102120000023FB6000233B6100237B614FF40053DD
:10213000BB6100233B623B1D1946074806F014FEB5
:102140000346002B01D001F03BFC034801F064FE84
:1021500000BF5837BD4680BDC002002000040140CA
:1021600080B500AF114B124A1A60104B4FF4E132A8
:102170005A600E4B00229A600C4B0022DA600B4B27
:1021800000221A61094B0C225A61084B00229A6105
:10219000064B0022DA61054806F04CFE0346002B90
:1021A00001D001F00DFC00BF80BD00BF080300207E
:1021B0000048004080B582B000AF00237B600C4B2C
:1021C0001B6B0B4A43F480031363094B1B6B03F433
:1021D00080037B607B6800220521382002F0C8FE66
:1021E000382002F0E1FE00BF0837BD4680BD00BFC9
:1021F0000038024080B58CB000AF07F11C0300220C
:102200001A605A609A60DA601A610023BB61544B0D
:102210001B6B534A43F010031363514B1B6B03F0CA
:102220001003BB61BB6900237B614D4B1B6B4C4AA8
:1022300043F0800313634A4B1B6B03F080037B6105
:102240007B6900233B61464B1B6B454A43F001030E
:102250001363434B1B6B03F001033B613B6900239A
:10226000FB603F4B1B6B3E4A43F0040313633C4B44
:102270001B6B03F00403FB60FB680023BB60384B5F
:102280001B6B374A43F008031363354B1B6B03F09A
:102290000803BB60BB6800237B60314B1B6B304A7B
:1022A00043F0020313632E4B1B6B03F002037B60AE
:1022B0007B6800224FF45E612A4803F021FC002273
:1022C0004FF49E71284803F01BFC4FF4BC63FB6184
:1022D00001233B6200237B620023BB6207F11C03E6
:1022E0001946204803F070FA4FF49E73FB610123F6
:1022F0003B6200237B620223BB6207F11C03194689
:10230000194803F061FA4FF40063FB6101233B625B
:1023100000237B620323BB6207F11C0319461148AB
:1023200003F052FA4FF48073FB6100233B620023F9
:102330007B6207F11C0319460C4803F045FA202381
:10234000FB6100233B6200237B6207F11C031946FB
:10235000074803F039FA00BF3037BD4680BD00BFE3
:10236000003802400010024000000240000C024011
:10237000000402400000000080B582B000AF786029
:102380007B681B7F012B40F08380454B1B78002B23
:102390001AD10021786805F0CFFF0346414A136047
:1023A0003F4B01221A707B681B681A6A7B681B68A6
:1023B00022F00A021A627B681B681A6A7B681B6833
:1023C00042F002021A6263E0354B1B78012B5FD1A9
:1023D0000021786805F0B0FF0346334A13607B683C
:1023E0001B6800225A62304B1A682E4B1B689A42B7
:1023F00007D92D4B1A682B4B1B68D31A2B4A136035
:102400000FE0284B1A68284B1B689A4209D9264BC3
:102410001A68244B1B68D31A03F57F43FF33234A02
:102420001360224B1B681846FEF764F81AA3D3E921
:102430000023FEF7D9F802460B46104619464FF026
:1024400000024FF08043FEF7F9F902460B461046B2
:102450001946FEF7A1FB0346DAB2154B1A70104B72
:1024600000221A707B681B681A6A7B681B6822F05E
:102470000A021A627B681A687B681B68126A1A6211
:102480000C4B1B68DA680B4B1B6822F00202DA6007
:1024900000BF0837BD4680BD9CC420B07268A13F14
:1024A000482800203C280020402800204428002004
:1024B000342800207802002080B500AF01224FF4BC
:1024C00000610B4803F01CFB012007F08FFD002288
:1024D0004FF40061064803F013FB064B1B68DA68F3
:1024E000044B1B6842F00202DA6000BF80BD00BFEF
:1024F000001002407802002080B582B000AF786002
:10250000144B1B68002B1BD1134B1A78134B1A70FA
:10251000114B5B78303B642202FB03F10E4B9B783E
:10252000A3F1300213469B0013445B00CA180A4B08
:10253000DB78303B13440A4A1360064B01221A60D1
:1025400004220549074806F007FD00BF0837BD46CD
:1025500080BD00BFA40700206007002035280020B0
:10256000382800200803002080B483B000AF7860D2
:1025700000BF0C37BD465DF8047B704700000000CB
:1025800080B582B000AF7860454B1B6892221A6418
:1025900004224449444806F0DFFC424A4349444887
:1025A0000AF084FA424A0A210A20FEF75BFEFFF78E
:1025B00083FF404801F0C2FE0A213E4801F0C3FFFC
:1025C0003C4802F05BF903463B4A13603A4B1B68F8
:1025D0001846FDF78FFF02460B4643EC102B0AF01E
:1025E000EBFE51EC100B2AA3D3E90023FDF7FCFF0F
:1025F00002460B461046194627A3D3E90023FDF7F0
:102600003DFE02460B4610461946FEF7E5FA034624
:1026100000EE103A0AF0AAFEF0EE407AFDEEE77AFC
:1026200017EE902A254B1A60224801F059FF234BE0
:102630001B681A46224923480AF038FA214A142115
:102640000A20FEF70FFE204B1B781A461F49204830
:102650000AF02CFA1E4A1E210A20FEF703FE1D4B2B
:10266000D3E9002310461946FEF76EFA03461A46D0
:1026700019491A480AF01AFA184A28210A20FEF7BE
:10268000F1FDFEF77BFC052007F0B0FC80E700BF02
:1026900052B81E85EB512CC07B14AE47E1AA5E40B8
:1026A000A0010020600700200803002018D80008BF
:1026B00074070020A40000202C28002030280020CF
:1026C0001CD80008A8270020342800202CD8000897
:1026D000E4270020182800203CD80008D02700203C
:1026E00080B483B000AF7860FEE7000080B59AB098
:1026F00000AF78604FF000024FF00003C7E91023ED
:102700004FF000024FF00003C7E90E234FF0000224
:102710004FF00003C7E90C234FF000024FF0000315
:10272000C7E90A230023FB650023BB6500237B6206
:1027300000233B620023FB6401F08CFD0246FB6C2E
:10274000D31A092B40F28E80484B1B685B6A7B6270
:10275000474B1B685B6A3B627B6AB3F5FA4F06DD49
:1027600001237B667B6AC3F580337B6504E04FF011
:10277000FF337B667B6A7B653B6AB3F5FA4F07DD07
:102780004FF0FF333B663B6AC3F580333B6503E0A4
:1027900001233B663B6A3B65364B1B683A6E9A42A7
:1027A00006D1354B1A683B6D1344334A136005E07C
:1027B000314B1A683B6DD31A2F4A13602D4B1B689F
:1027C0007A6E9A4206D12D4B1A687B6D13442B4AC0
:1027D000136005E0294B1A687B6DD31A274A1360F2
:1027E000274B1B68FB65274B1B68BB65FB6D002BEC
:1027F00005DAFEF759FFFB6D5B42FB6501E0FEF772
:1028000043FFBB6D002B05DAFEF76EFFBB6D5B422D
:10281000BB6501E0FEF758FFFB6D41F6573293426E
:1028200002DD41F65833FB65BB6D41F657329342EA
:1028300002DD41F65833BB65134B1B68FA6D5A63D2
:10284000114B1B68BA6D9A630D4B1B68002B074B2D
:102850001B6800225A62064B1B6800225A6201F074
:10286000F9FCF8640A2007F0DCFB65E7E8010020CA
:102870003002002000000020102800200C2800203A
:102880009C070020A0070020C002002000000000DC
:10289000B0B58AB000AF78600023BB8300237B848F
:1028A00000237B62FEF780FF00233B8401F0D2FC13
:1028B00078620A2007F0B5FB0A2007F0B2FB01F0AE
:1028C000C9FC02467B6AD31A632BF5D907F11C03B6
:1028D00019463720FEF718FF3B7F1B021AB27B7F99
:1028E0001BB213437B84B7F922301846FDF712FE62
:1028F0004FF000024C4BFDF7C1FC02460B4614465C
:102900001D4601F0A7FC02467B6AD31A1846FDF764
:10291000F1FD41A3D3E90023FDF790FF02460B46EA
:1029200020462946FDF760FE02460B461046194632
:102930003BA3D3E90023FDF757FE02460B461046A2
:1029400019463A4BD3E90023FDF798FC02460B46A3
:102950003649C1E90023B7F922301846FDF7DAFD00
:102960004FF00002304BFDF789FC02460B4614463F
:102970001D4601F06FFC02467B6AD31A1846FDF72C
:10298000B9FD25A3D3E90023FDF758FF02460B4606
:1029900020462946FDF728FE02460B4610461946FA
:1029A0001FA3D3E90023FDF71FFE02460B46104686
:1029B00019461F4BD3E90023FDF760FC02460B4686
:1029C0001B49C1E90023194BD3E900014FF0000274
:1029D000184BFEF78FF80346002B06D013494FF033
:1029E00000024FF00003C1E90023104BD3E90001BE
:1029F0004FF00002104BFEF773F80346002B06D091
:102A00000A494FF000024FF00003C1E9002301F032
:102A100021FC786250E700BF000000000004D040B5
:102A20008FC2F5285C8FF23F0000F83F1828002085
:102A30002028002000808640008086C00000000022
:102A4000B0B58CB000AF78604FF480527E497F48BB
:102A500001F004FE0023FB830023BB837C4BBB619E
:102A600000237B6100233B610023FB624FF00002E7
:102A70004FF00003C7E908230023FB603023FB72FB
:102A8000744B1B78303B092B00F26C8701A252F883
:102A900023F000BFBD2A0008F12B0008B92D000863
:102AA0005D2F0008ED300008AD3200083934000811
:102AB00013360008D537000861390008FEF774FEA8
:102AC00065494FF000024FF00003C1E9002359E0CF
:102AD000624B40F27E421A60614B40F27E421A60C5
:102AE0005D4BD3E900014FF000025E4BFDF77CFD2A
:102AF00002460B4614461D464FF000024FF00003FD
:102B0000D7E90801FDF770FD02460B46204629462D
:102B1000FDF7B4FB02460B461046194648A3D3E91D
:102B20000023FDF7ABFB02460B4610461946FEF7A5
:102B30000BF80346FB624C4B1B78372B09D1FB6A21
:102B40008C2B01DC9023FB62FB6A982B01DD952323
:102B5000FB62464B1B6893221A64052007F061FA5A
:102B6000424B1B68FA6A1A64052007F05AFA3A4B7E
:102B7000D3E90023D7E90801FDF780FB02460B46A5
:102B8000C7E908233A4B1B78372BA1D8384B1B7861
:102B90001D2B9DD9FEF724FC364B00221A60364BC4
:102BA00000221A60C82007F021FA04223349344871
:102BB00006F08DF92E4B1B78252B0CD92C4B1B784E
:102BC000253BFB600121F868FEF71EFC642007F03E
:102BD0000DFA00F0C7BE264B1B78C3F12503FB603E
:102BE000F868FEF7D5FE642007F000FA00F0BABEE0
:102BF0002D20FEF777FEC82007F0F8F901211220FA
:102C0000FEF702FCC82007F0F1F96D20FEF710FE78
:102C1000C82007F0EBF94120FEF764FE642007F0BE
:102C2000E5F91820FEF7B4FEFEF7BEFD0A494FF0A5
:102C300000024FF00003C1E900237DE0AFF3008004
:102C40000000000000606240A8070020A4000020EF
:102C5000F2FEFFFF74070020182800209C070020C8
:102C6000A00700200000244010000020A001002048
:102C7000342800200C2800201028002048D8000804
:102C800008030020AA4B4FF47A721A60A94B4FF444
:102C90007A721A60A84BD3E900014FF00002A74BEB
:102CA000FDF7A2FC02460B4614461D464FF00002FB
:102CB0004FF00003D7E90801FDF796FC02460B46EA
:102CC00020462946FDF7DAFA02460B461046194619
:102CD00095A3D3E90023FDF7D1FA02460B4610462F
:102CE0001946FDF731FF0346FB62954B1B78372BE6
:102CF00009D1FB6A8F2B01DC8C23FB62FB6A992BC9
:102D000001DD9423FB628F4B1B6893221A6405201C
:102D100007F087F98B4B1B68FA6A1A64052007F0E5
:102D200080F9854BD3E90023D7E90801FDF7A6FA1E
:102D300002460B46C7E90823834B1B78282BA1D8F2
:102D4000814B1B78092B9DD9FEF74AFB7F4B002254
:102D50001A607F4B00221A604FF47A7007F046F930
:102D600075494FF000024FF00003C1E90023764B94
:102D70001B78152B0BD9744B1B78163BFB6001217C
:102D8000F868FEF741FB642007F030F90AE06E4B6B
:102D90001B78C3F11603FB60F868FEF7F9FD6420A9
:102DA00007F024F90620FEF7F3FD042269496A487A
:102DB00006F08DF800F0D6BD2D20FEF739FDC820B5
:102DC00007F014F901211320FEF71EFB642007F021
:102DD0000DF97520FEF786FD642007F007F93F2006
:102DE000FEF726FD642007F001F91820FEF7D0FD5C
:102DF00051494FF000024FF00003C1E9002359E0B0
:102E00004B4B4FF47A721A604A4B4FF47A721A6045
:102E1000494BD3E900014FF00002484BFDF7E4FBBA
:102E200002460B4614461D464FF000024FF00003C9
:102E3000D7E90801FDF7D8FB02460B462046294694
:102E4000FDF71CFA02460B461046194636A3D3E995
:102E50000023FDF713FA02460B4610461946FDF70C
:102E600073FE0346FB62364B1B78372B09D1FB6A96
:102E70008F2B01DC8C23FB62FB6A992B01DD9423F1
:102E8000FB62304B1B6893221A64052007F0C9F8D7
:102E90002C4B1B68FA6A1A64052007F0C2F8264B0F
:102EA000D3E90023D7E90801FDF7E8F902460B460C
:102EB000C7E90823244B1B78282BA1D8224B1B7869
:102EC000092B9DD9FEF78CFA204B00221A60204B6B
:102ED00000221A604FF47A7007F088F81A4B1B78BA
:102EE000152B0BD9184B1B78163BFB600121F8689A
:102EF000FEF78AFA642007F079F80AE0124B1B7893
:102F0000C3F11603FB60F868FEF742FD642007F08A
:102F10006DF80620FEF73CFD04220E490E4805F030
:102F2000D6FF00F01FBD00BF00000000006062403F
:102F30009C070020A0070020182800200000244043
:102F400010000020A0010020342800200C280020C0
:102F50001028002050D8000808030020C82007F0DF
:102F600045F85F20FEF7BEFC642007F03FF8C32061
:102F7000FEF75EFC642007F039F801213420FEF7EB
:102F800043FA642007F032F87A20FEF751FC6420FF
:102F900007F02CF8FEF708FCB5494FF000024FF09F
:102FA0000003C1E9002301217C20FEF72DFA6420F3
:102FB00007F01CF81120FEF73BFC642007F016F820
:102FC0001C20FEF78FFCAA494FF000024FF00003CF
:102FD000C1E9002359E0A74B40F24C421A60A64BCE
:102FE00040F24C421A60A24BD3E900014FF00002BC
:102FF000A24BFDF7F9FA02460B4614461D464FF068
:1030000000024FF00003D7E90801FDF7EDFA024690
:103010000B4620462946FDF731F902460B4610467D
:1030200019468FA3D3E90023FDF728F902460B4682
:1030300010461946FDF788FD0346FB62904B1B784E
:10304000372B09D1FB6A8E2B01DC9023FB62FB6AD4
:10305000982B01DD9523FB628A4B1B6893221A642F
:10306000052006F0DEFF874B1B68FA6A1A6405200C
:1030700006F0D7FF7E4BD3E90023D7E90801FDF71F
:10308000FDF802460B46C7E908237F4B1B781E2B31
:10309000A1D87D4B1B780B2B9DD9FEF7A1F97B4B5B
:1030A00000221A607A4B00221A60642006F09EFF0C
:1030B000754B1B780E2B0CD9734B1B780F3BFB60A9
:1030C0000121F868FEF7A0F9642006F08FFF00F0F8
:1030D00049BC6D4B1B78C3F10F03FB60F868FEF72A
:1030E00057FC642006F082FF00F03CBCC82006F0CC
:1030F0007DFF5F20FEF79CFB642006F077FFCF206A
:10310000FEF7F0FB642006F071FF01213F20FEF77F
:103110007BF9642006F06AFF7D20FEF7E3FB642064
:1031200006F064FFFEF740FB51494FF000024FF0FC
:103130000003C1E9002301218220FEF765F9642024
:1031400006F054FF0F20FEF7CDFB642006F04EFF83
:103150001520FEF76DFB46494FF000024FF00003CB
:10316000C1E9002359E0434B40F24C421A60424B04
:1031700040F24C421A603E4BD3E900014FF000028E
:103180003E4BFDF731FA02460B4614461D464FF002
:1031900000024FF00003D7E90801FDF725FA0246C7
:1031A0000B4620462946FDF769F802460B461046B5
:1031B00019462DA3D3E90023FDF760F802460B461C
:1031C00010461946FDF7C0FC0346FB622C4B1B78EA
:1031D000372B09D1FB6A8C2B01DC9123FB62FB6A44
:1031E000992B01DD9523FB62264B1B6893221A6401
:1031F000052006F016FF234B1B68FA6A1A640520A7
:1032000006F00FFF1A4BD3E90023D7E90801FDF7B9
:1032100035F802460B46C7E908231B4B1B781E2BCB
:10322000A1D8194B1B780B2B9DD9FEF7D9F8174B5A
:1032300000221A60164B00221A60642006F0D6FEA7
:10324000114B1B780E2B25D90F4B1B780F3BFB60C6
:103250000121F868FEF7D8F8642006F0C7FE81E384
:10326000000000000060624000000000005062406A
:10327000182800209C070020A00700200000244000
:1032800010000020A0010020342800200C2800207D
:10329000102800208A4B1B78C3F10F03FB60F868ED
:1032A000FEF776FB642006F0A1FE5BE3C82006F083
:1032B0009DFE5F20FEF716FB642006F097FEC320FC
:1032C000FEF7B6FA642006F091FE01213320FEF7E6
:1032D0009BF8642006F08AFE6F20FEF7A9FA6420AE
:1032E00006F084FEFEF760FA76494FF000024FF0D8
:1032F0000003C1E9002301219620FEF785F8642030
:1033000006F074FE0C20FEF793FA642006F06EFEC1
:103310001320FEF7E7FA6B494FF000024FF000036D
:10332000C1E9002359E0684B40F24C421A60674BF8
:1033300040F24C421A60634BD3E900014FF00002A7
:10334000634BFDF751F902460B4614461D464FF0FC
:1033500000024FF00003D7E90801FDF745F90246E6
:103360000B4620462946FCF789FF02460B461046CD
:10337000194651A3D3E90023FCF780FF02460B4610
:1033800010461946FDF7E0FB0346FB62514B1B78E4
:10339000372B09D1FB6A8E2B01DC9023FB62FB6A81
:1033A000982B01DD9523FB624B4B1B6893221A641B
:1033B000052006F036FE484B1B68FA6A1A640520A1
:1033C00006F02FFE3F4BD3E90023D7E90801FCF7B5
:1033D00055FF02460B46C7E90823394B1B781E2BC5
:1033E000A1D8374B1B780B2B9DD9FDF7F9FF3B4B31
:1033F00000221A603A4B00221A60642006F0F6FDA3
:103400002F4B1B780E2B0BD92D4B1B780F3BFB60E2
:103410000121F868FDF7F8FF642006F0E7FDA1E25E
:10342000274B1B78C3F10F03FB60F868FEF7B0FA77
:10343000642006F0DBFD95E2C82006F0D7FD5F2092
:10344000FEF7F6F9642006F0D1FDCF20FEF74AFA28
:10345000642006F0CBFD01213F20FDF7D5FF64205D
:1034600006F0C4FD7420FEF73DFA642006F0BEFDB0
:10347000FEF79AF913494FF000024FF00003C1E93B
:10348000002301219920FDF7BFFF642006F0AEFD67
:103490001220FEF727FA642006F0A8FD1420FEF79C
:1034A000C7F908494FF000024FF00003C1E90023BB
:1034B00080E000BFAFF300800000000000606240C9
:1034C00034280020182800209C070020A007002096
:1034D0000000244010000020A00100200C28002043
:1034E00010280020B24B40F24C421A60B14B40F21F
:1034F0004C421A60B04BD3E900014FF00002AF4BD1
:10350000FDF772F802460B4614461D464FF00002C6
:103510004FF00003D7E90801FDF766F802460B46B5
:1035200020462946FCF7AAFE02460B4610461946DD
:103530009BA3D3E90023FCF7A1FE02460B461046ED
:103540001946FDF701FB0346FB629D4B1B78372BA9
:1035500009D1FB6A8C2B01DC9123FB62FB6A992B5E
:1035600001DD9523FB62964B1B78382B09D1FB6A52
:103570008C2B01DC9023FB62FB6A992B01DD9223EB
:10358000FB62904B1B6893221A64052006F049FDEC
:103590008C4B1B68FA6A1A64052006F042FD864BC4
:1035A000D3E90023D7E90801FCF768FE02460B4681
:1035B000C7E90823844B1B781E2B93D8824B1B78BA
:1035C0000B2B8FD9FDF70CFF804B00221A60804B2C
:1035D00000221A60642006F009FD7B4B1B780E2B3D
:1035E0000BD9794B1B780F3BFB600121F868FDF785
:1035F0000BFF642006F0FAFCB4E1734B1B78C3F1B7
:103600000F03FB60F868FEF7C3F9642006F0EEFCD8
:10361000A8E1C82006F0EAFC5F20FEF763F9642009
:1036200006F0E4FCC320FEF703F9642006F0DEFC9C
:1036300001213320FDF7E8FE642006F0D7FC70205E
:10364000FEF7F6F8642006F0D1FCFEF7ADF85A4913
:103650004FF000024FF00003C1E900230121872051
:10366000FDF7D2FE642006F0C1FC0A20FEF7E0F868
:10367000642006F0BBFC1220FEF734F94E494FF0EF
:1036800000024FF00003C1E9002359E0484B40F22B
:103690004C421A60474B40F24C421A60464BD3E909
:1036A00000014FF00002454BFCF79EFF02460B461F
:1036B00014461D464FF000024FF00003D7E9080101
:1036C000FCF792FF02460B4620462946FCF7D6FD42
:1036D00002460B461046194633A3D3E90023FCF7F4
:1036E000CDFD02460B4610461946FDF72DFA03465E
:1036F000FB62334B1B78372B09D1FB6A8E2B01DC25
:103700009023FB62FB6A982B01DD9523FB622D4B16
:103710001B6893221A64052006F083FC294B1B6862
:10372000FA6A1A64052006F07CFC234BD3E90023D7
:10373000D7E90801FCF7A2FD02460B46C7E90823BA
:10374000214B1B781E2BA1D81F4B1B780B2B9DD90F
:10375000FDF746FE1D4B00221A601D4B00221A6029
:10376000642006F043FC184B1B780E2B0BD9164B2C
:103770001B780F3BFB600121F868FDF745FE6420D4
:1037800006F034FCEEE0104B1B78C3F10F03FB6036
:10379000F868FEF7FDF8642006F028FCE2E000BFC0
:1037A0000000000000506240000000000060624025
:1037B0009C070020A00700201828002000002440BB
:1037C00010000020A0010020342800200C28002038
:1037D00010280020C82006F009FC5F20FEF728F81A
:1037E000642006F003FCCF20FEF77CF8642006F08E
:1037F000FDFB01214320FDF707FE642006F0F6FBE8
:103800007C20FEF76FF8642006F0F0FBFDF7CCFF9C
:1038100059494FF000024FF00003C1E90023012194
:103820008C20FDF7F1FD642006F0E0FB0D20FEF793
:1038300059F8642006F0DAFB1020FDF7F9FF4E4935
:103840004FF000024FF00003C1E9002359E04B4B59
:1038500040F24C421A604A4B40F24C421A60464BCE
:10386000D3E900014FF00002464BFCF7BDFE0246D3
:103870000B4614461D464FF000024FF00003D7E9F7
:103880000801FCF7B1FE02460B4620462946FCF72C
:10389000F5FC02460B461046194635A3D3E9002332
:1038A000FCF7ECFC02460B4610461946FDF74CF9B6
:1038B0000346FB62344B1B78372B09D1FB6A8C2BF8
:1038C00001DC9123FB62FB6A992B01DD9523FB62EE
:1038D0002E4B1B6893221A64052006F0A2FB2B4B8B
:1038E0001B68FA6A1A64052006F09BFB224BD3E999
:1038F0000023D7E90801FCF7C1FC02460B46C7E9E3
:103900000823234B1B781E2BA1D8214B1B780B2B94
:103910009DD9FDF765FD1F4B00221A601E4B00224A
:103920001A60642006F062FB194B1B780E2B0BD932
:10393000174B1B780F3BFB600121F868FDF764FD16
:10394000642006F053FB0DE0114B1B78C3F10F030D
:10395000FB60F868FEF71CF8642006F047FB01E006
:10396000FDF73EFD052006F05CFBFFF789B800BFC0
:103970000000000000606240182800209C07002022
:10398000A00700200000244010000020A00100201B
:10399000342800200C2800201028002080B582B098
:1039A00000AF78607B681B68044A934201D100F045
:1039B0003DFC00BF0837BD4680BD00BF0010004081
:1039C00080B400AF72B600BFFEE7000080B582B0E1
:1039D00000AF00237B60124B5B6C114A43F48043C1
:1039E00053640F4B5B6C03F480437B607B68002364
:1039F0003B600B4B1B6C0A4A43F080531364084B2B
:103A00001B6C03F080533B603B6800220F216FF07A
:103A1000010001F0ADFA00BF0837BD4680BD00BF10
:103A20000038024080B58AB000AF786007F1140317
:103A300000221A605A609A60DA601A617B681B681B
:103A40003C4A934271D100233B613B4B5B6C3A4A49
:103A500043F480735364384B5B6C03F480733B61B5
:103A60003B690023FB60344B1B6B334A43F001037B
:103A70001363314B1B6B03F00103FB60FB680023F6
:103A8000BB602D4B1B6B2C4A43F0040313632A4B82
:103A90001B6B03F00403BB60BB6801237B61032342
:103AA000BB610023FB6107F114031946234801F0B1
:103AB0008BFE10237B610323BB610023FB6107F1B5
:103AC000140319461E4801F07FFE1E4B1E4A1A6061
:103AD0001C4B00225A601B4B00229A60194B00229B
:103AE000DA60184B4FF480621A61164B4FF4006293
:103AF0005A61144B4FF400529A61124B4FF480728A
:103B0000DA61104B00221A620E4B00225A620D48F5
:103B100001F058FA0346002B01D0FFF751FF7B68F4
:103B2000084A9A63074A7B68936300BF2837BD46FB
:103B300080BD00BF0020014000380240000002406C
:103B400000080240EC0000201064024080B58AB0FA
:103B500000AF786007F1140300221A605A609A607F
:103B6000DA601A617B681B68194A93422CD10023E2
:103B70003B61184B1B6B174A43F002031363154B51
:103B80001B6B03F002033B613B694FF440737B61A5
:103B90001223BB610023FB6103233B6204237B628E
:103BA00007F1140319460C4801F00EFE0023FB60D8
:103BB000084B1B6C074A43F400131364054B1B6C42
:103BC00003F40013FB60FB6800BF2837BD4680BDCF
:103BD00000540040003802400004024080B58CB020
:103BE00000AF786007F11C0300221A605A609A60E7
:103BF000DA601A617B681B68354A934216D100234C
:103C0000BB61344B5B6C334A43F001035364314B6B
:103C10005B6C03F00103BB61BB6900220521192025
:103C200001F0A6F9192001F0BFF94DE07B681B688F
:103C3000294A934235D100237B61264B1B6C254AD0
:103C400043F004031364234B1B6C03F004037B61F8
:103C50007B6900233B611F4B1B6B1E4A43F008032B
:103C600013631C4B1B6B03F008033B613B694FF470
:103C7000A043FB6102233B6200237B620023BB6203
:103C80000223FB6207F11C031946144801F09CFD56
:103C9000002205211E2001F06BF91E2001F084F99D
:103CA00012E07B681B680E4A93420DD10023FB6033
:103CB000084B5B6C074A43F002035364054B5B6C93
:103CC00003F00203FB60FB6800BF3037BD4680BDD8
:103CD000000001400038024000080040000C024093
:103CE0000004014080B58CB000AF786007F11C0380
:103CF00000221A605A609A60DA601A617B681B6859
:103D0000B3F1804F4BD10023BB613F4B1B6C3E4A4C
:103D100043F0010313643C4B1B6C03F00103BB61D4
:103D2000BB6900237B61384B1B6B374A43F00103AF
:103D30001363354B1B6B03F001037B617B6900232D
:103D40003B61314B1B6B304A43F0020313632E4B34
:103D50001B6B03F002033B613B694FF40043FB61C3
:103D600002233B6200237B620023BB620123FB62D0
:103D700007F11C031946254801F026FD0823FB61C5
:103D800002233B6200237B620023BB620123FB62B0
:103D900007F11C0319461E4801F016FD30E07B6850
:103DA0001B681C4A93422BD10023FB60164B1B6CF3
:103DB000154A43F002031364134B1B6C03F0020318
:103DC000FB60FB680023BB600F4B1B6B0E4A43F08C
:103DD000010313630C4B1B6B03F00103BB60BB6857
:103DE000C023FB6102233B6200237B620023BB6292
:103DF0000223FB6207F11C031946044801F0E4FCAE
:103E000000BF3037BD4680BD003802400000024090
:103E1000000402400004004080B58AB000AF786022
:103E200007F1140300221A605A609A60DA601A617E
:103E30007B681B68244A93421FD100233B61234BBC
:103E40001B6B224A43F010031363204B1B6B03F0E0
:103E500010033B613B694FF480437B610223BB61EC
:103E60000023FB6103233B6201237B6207F1140300
:103E70001946174801F0A8FC22E07B681B68154A28
:103E800093421DD10023FB60104B1B6B0F4A43F084
:103E9000040313630D4B1B6B03F00403FB60FB680F
:103EA000C0237B610223BB610023FB6100233B62D3
:103EB00003237B6207F114031946074801F084FCD1
:103EC00000BF2837BD4680BD0000014000380240D9
:103ED00000100240000401400008024080B58AB092
:103EE00000AF786007F1140300221A605A609A60EC
:103EF000DA601A617B681B681D4A934234D1002343
:103F00003B611C4B1B6C1B4A43F480231364194B0D
:103F10001B6C03F480233B613B690023FB60154B62
:103F20001B6B144A43F004031363124B1B6B03F027
:103F30000403FB60FB684FF440637B610223BB61B9
:103F40000023FB6103233B6207237B6207F1140319
:103F50001946094801F038FC00220521272001F00C
:103F600007F8272001F020F800BF2837BD4680BDA4
:103F700000480040003802400008024080B58EB082
:103F800000AF78600023FB620023BB620023FB606C
:103F9000334B1B6C324A43F010031364304B1B6CE1
:103FA00003F01003FB60FB6807F1100207F1140334
:103FB0001146184603F014FA3B6AFB62FB6A002BB9
:103FC00003D103F0E5F9786304E003F0E1F9034677
:103FD0005B007B637B6B234AA2FB03239B0C013BAF
:103FE000BB62214B214A1A601F4B40F2E732DA6074
:103FF0001D4ABB6A53601C4B00221A611A4B0022F7
:104000009A60194B00229A61174803F01BFA034685
:1040100087F8333097F83330002B1BD1124803F068
:1040200061FA034687F8333097F83330002B11D10B
:10403000362000F0B9FF7B680F2B08D80022796882
:10404000362000F095FF0A4A7B68136002E00123E6
:1040500087F8333097F8333018463837BD4680BD7F
:104060000038024083DE1B434C2800200010004033
:104070001800002080B400AFFEE780B400AFFEE778
:1040800080B400AFFEE780B400AFFEE780B400AFBD
:10409000FEE780B400AF00BFBD465DF8047B70470B
:1040A00080B500AF024803F019FE00BF80BD00BF1D
:1040B000A001002080B500AF024803F00FFE00BF52
:1040C00080BD00BF7802002080B500AF024804F038
:1040D00073FF00BF80BD00BF0803002080B500AFA4
:1040E000024803F0FBFD00BF80BD00BF4C2800204C
:1040F00080B500AF024801F0FDF800BF80BD00BFF1
:10410000EC00002080B586B000AF7860144A154BF3
:10411000D31A7B617B693B61134B1B68002B02D177
:10412000114B124A1A60104B1A687B6813443A69A3
:104130009A4207D208F07AFC03460C221A604FF02C
:10414000FF3309E0084B1B68FB60074B1A687B686C
:104150001344054A1360FB6818461837BD4680BDF6
:1041600000000220000400009428002000720020BB
:1041700080B400AF064BD3F88830054A43F470038F
:10418000C2F8883000BFBD465DF8047B704700BFB1
:1041900000ED00E0DFF834D00D480E490E4A002350
:1041A00002E0D458C4500433C4188C42F9D30B4AEB
:1041B0000B4C002301E013600432A242FBD3FFF753
:1041C000D7FF08F039FCFDF7F9FB7047000002202B
:1041D0000000002088000020ECE300088800002098
:1041E000FC710020FEE7000080B500AF0E4B1B689D
:1041F0000D4A43F4007313600B4B1B680A4A43F4E7
:1042000080631360084B1B68074A43F48073136094
:10421000032000F0A2FE0F20FFF7B0FEFFF7D6FB51
:104220000023184680BD00BF003C024080B400AFB0
:10423000064B1B781A46064B1B681344044A13604E
:1042400000BFBD465DF8047B704700BF1C00002026
:104250009828002080B400AF034B1B681846BD4669
:104260005DF8047B704700BF9828002080B584B0BB
:1042700000AF7860FFF7EEFFB8607B68FB60FB681B
:10428000B3F1FF3F05D00A4B1B781A46FB68134475
:10429000FB6000BFFFF7DEFF0246BB68D31AFA6877
:1042A0009A42F7D800BF00BF1037BD4680BD00BF9F
:1042B0001C00002080B584B000AF78600023FB7341
:1042C0007B68002B01D1012333E07B681B6C002B42
:1042D00009D17868FFF7A6FB7B6800225A647B68E7
:1042E000002283F83C207B681B6C03F01003002B3A
:1042F00018D17B681B6C23F4885323F0020343F02E
:1043000002027B681A64786800F0FCFB7B6800227C
:104310005A647B681B6C23F0030343F001027B6843
:104320001A6401E00123FB737B68002283F83C20C0
:10433000FB7B18461037BD4680BD000080B485B0B9
:1043400000AF78600023BB607B6893F83C30012BA2
:1043500001D10223B2E07B68012283F83C207B6814
:104360001B689B6803F00103012B18D07B681B6856
:104370009A687B681B6842F001029A60524B1B6886
:10438000524AA2FB03239A0C13465B001344BB6002
:1043900002E0BB68013BBB60BB68002BF9D17B68C6
:1043A0001B689B6803F00103012B7AD17B681B6CAF
:1043B00023F4E06323F0010343F480727B681A6402
:1043C0007B681B685B6803F48063002B07D07B6805
:1043D0001B6C23F4405343F480527B681A647B685F
:1043E0001B6C03F48053B3F5805F06D17B685B6C74
:1043F00023F006027B685A6402E07B6800225A645C
:104400007B68002283F83C20314BFB607B681B6893
:104410006FF022021A60FB685B6803F01F03002B39
:104420002AD17B681B682B4A934215D07B681B6896
:10443000294A934205D1264B5B6803F01F03002BEA
:104440000AD07B681B68254A934236D1204B5B68B3
:1044500003F01003002B30D17B681B689B6803F0CE
:104460004053002B29D17B681B689A687B681B68C6
:1044700042F080429A6020E07B681B68154A9342B4
:104480001BD17B681B689B6803F04053002B14D141
:104490007B681B689A687B681B6842F080429A6060
:1044A0000BE07B681B6C43F010027B681A647B682E
:1044B0005B6C43F001027B685A6400231846143792
:1044C000BD465DF8047B70471400002083DE1B436B
:1044D0000023014000200140002101400022014052
:1044E00080B483B000AF78607B6893F83C30012BD8
:1044F00001D1022321E07B68012283F83C207B6804
:104500001B689A687B681B6822F001029A607B68CE
:104510001B689B6803F00103002B09D17B681B6CAF
:1045200023F4885323F0010343F001027B681A64EB
:104530007B68002283F83C20002318460C37BD46D8
:104540005DF8047B704780B584B000AF7860396057
:104550000023FB607B681B689B6803F48063B3F5F2
:10456000806F13D17B681B689B6803F48073B3F57D
:10457000807F0BD17B681B6C43F020027B681A6440
:104580007B68002283F83C20012363E0FFF762FE92
:10459000F86021E03B68B3F1FF3F1DD03B68002B82
:1045A00007D0FFF757FE0246FB68D31A3A689A42D3
:1045B00012D27B681B681B6803F00203022B0BD02E
:1045C0007B681B6C43F004027B681A647B680022E2
:1045D00083F83C2003233DE07B681B681B6803F0E5
:1045E0000203022BD6D17B681B686FF012021A609F
:1045F0007B681B6C43F400727B681A647B681B68E1
:104600009B6803F04053002B23D17B681B7E002B5B
:104610001FD17B681B68DB6A03F47003002B06D094
:104620007B681B689B6803F48063002B11D17B6857
:104630001B6C23F480727B681A647B681B6C03F428
:104640008053002B05D17B681B6C43F001027B6813
:104650001A64002318461037BD4680BD80B586B069
:1046600000AFF860B9607A6000233B61FB6893F8A3
:104670003C30012B01D10223E9E0FB68012283F8E1
:104680003C20FB681B689B6803F00103012B18D0DA
:10469000FB681B689A68FB681B6842F001029A601D
:1046A0006D4B1B686D4AA2FB03239A0C13465B00FB
:1046B00013443B6102E03B69013B3B613B69002BDA
:1046C000F9D1FB681B689B6803F48073B3F5807FA6
:1046D00007D1FB681B689A68FB681B6822F480722C
:1046E0009A60FB681B689B6803F00103012B40F094
:1046F000A180FB681B6C23F4E06323F0010343F407
:104700008072FB681A64FB681B685B6803F4806353
:10471000002B07D0FB681B6C23F4405343F48052FA
:10472000FB681A64FB681B6C03F48053B3F5805F6D
:1047300006D1FB685B6C23F00602FB685A6402E05A
:10474000FB6800225A64FB68002283F83C20444B3B
:104750007B61FB689B6B434ADA63FB689B6B424A55
:104760001A64FB689B6B414ADA64FB681B686FF054
:1047700022021A60FB681B685A68FB681B6842F0DB
:1047800080625A60FB681B689A68FB681B6842F489
:1047900080729A60FB68986BFB681B684C33194603
:1047A000BA687B6800F0BCFC7B695B6803F01F03A0
:1047B000002B2AD1FB681B682D4A934215D0FB6859
:1047C0001B682C4A934205D1254B5B6803F01F03FD
:1047D000002B0AD0FB681B68274A934236D1204B36
:1047E0005B6803F01003002B30D1FB681B689B68EB
:1047F00003F04053002B29D1FB681B689A68FB68C3
:104800001B6842F080429A6020E0FB681B68184AEF
:1048100093421BD1FB681B689B6803F04053002B3D
:1048200014D1FB681B689A68FB681B6842F08042E1
:104830009A600BE0FB681B6C43F01002FB681A6483
:10484000FB685B6C43F00102FB685A640023184666
:104850001837BD4680BD00BF1400002083DE1B4317
:1048600000230140FD4C0008B74D0008D34D00085F
:1048700000200140002101400022014080B483B0AB
:1048800000AF78607B681B68DB6C18460C37BD4650
:104890005DF8047B704780B483B000AF786000BFE0
:1048A0000C37BD465DF8047B704780B483B000AF21
:1048B000786000BF0C37BD465DF8047B7047000090
:1048C00080B485B000AF786039600023BB607B683E
:1048D00093F83C30012B01D1022305E17B680122D2
:1048E00083F83C203B681B68092B25D97B681B6833
:1048F000D9683B681B689BB21A4613465B00134499
:104900001E3B072202FA03F3DA437B681B680A4066
:10491000DA607B681B68D9683B689A683B681B68EB
:104920009BB2184603465B0003441E3B9A407B68DB
:104930001B680A43DA6022E07B681B6819693B68E0
:104940001B689BB21A4613465B001344072202FA07
:1049500003F3DA437B681B680A401A617B681B68B3
:1049600019693B689A683B681B689BB21846034606
:104970005B0003449A407B681B680A431A613B68EA
:104980005B68062B24D87B681B68596B3B685A68A8
:1049900013469B001344053B1F2202FA03F3DA433C
:1049A0007B681B680A405A637B681B68596B3B68CD
:1049B0001B689BB218463B685A6813469B00134419
:1049C000053B00FA03F27B681B680A435A634CE01C
:1049D0003B685B680C2B24D87B681B68196B3B68B1
:1049E0005A6813469B001344233B1F2202FA03F329
:1049F000DA437B681B680A401A637B681B68196B83
:104A00003B681B689BB218463B685A6813469B007C
:104A10001344233B00FA03F27B681B680A431A63C2
:104A200023E07B681B68D96A3B685A6813469B0081
:104A30001344413B1F2202FA03F3DA437B681B68ED
:104A40000A40DA627B681B68D96A3B681B689BB2C4
:104A500018463B685A6813469B001344413B00FAD2
:104A600003F27B681B680A43DA62224BFB607B68B7
:104A70001B68214A934209D13B681B68122B05D160
:104A8000FB685B6843F48002FB685A607B681B68C4
:104A9000194A934223D13B681B68102B03D03B6813
:104AA0001B68112B1BD1FB685B6843F40002FB6899
:104AB0005A603B681B68102B11D1104B1B68104AC1
:104AC000A2FB03239A0C13469B0013445B00BB60BC
:104AD00002E0BB68013BBB60BB68002BF9D17B687F
:104AE000002283F83C20002318461437BD465DF8A9
:104AF000047B704700230140002001401400002087
:104B000083DE1B4380B485B000AF7860794BFB60D7
:104B1000FB685B6823F44032FB685A60FB685A68A4
:104B20007B685B681A43FB685A607B681B685A683D
:104B30007B681B6822F480725A607B681B68596826
:104B40007B681B691A027B681B680A435A607B6892
:104B50001B685A687B681B6822F040725A607B6849
:104B60001B6859687B689A687B681B680A435A60AF
:104B70007B681B689A687B681B6822F400629A60F5
:104B80007B681B6899687B68DA687B681B680A43E6
:104B90009A607B689B6A584A934222D07B681B6864
:104BA0009A687B681B6822F070629A607B681B6859
:104BB00099687B689A6A7B681B680A439A607B687D
:104BC0001B689A687B681B6822F040529A607B6879
:104BD0001B6899687B68DA6A7B681B680A439A607D
:104BE0000FE07B681B689A687B681B6822F0706224
:104BF0009A607B681B689A687B681B6822F0405249
:104C00009A607B681B689A687B681B6822F00202C6
:104C10009A607B681B6899687B681B7E5A007B687A
:104C20001B680A439A607B6893F82030002B1BD0E6
:104C30007B681B685A687B681B6842F400625A6094
:104C40007B681B685A687B681B6822F460425A6064
:104C50007B681B6859687B685B6A013B5A037B6809
:104C60001B680A435A6007E07B681B685A687B68C8
:104C70001B6822F400625A607B681B68DA6A7B68F2
:104C80001B6822F47002DA627B681B68D96A7B6851
:104C9000DB69013B1A057B681B680A43DA627B68A3
:104CA0001B689A687B681B6822F400729A607B68B4
:104CB0001B6899687B6893F830305A027B681B68E0
:104CC0000A439A607B681B689A687B681B6822F4B9
:104CD00080629A607B681B6899687B685B699A024E
:104CE0007B681B680A439A6000BF1437BD465DF8B5
:104CF000047B7047002301400100000F80B584B0A1
:104D000000AF78607B689B6BFB60FB681B6C03F0FB
:104D10005003002B3CD1FB681B6C43F40072FB6812
:104D20001A64FB681B689B6803F04053002B2BD16F
:104D3000FB681B7E002B27D1FB681B68DB6A03F432
:104D40007003002B06D0FB681B689B6803F480632C
:104D5000002B19D1FB681B685A68FB681B6822F09E
:104D600020025A60FB681B6C23F48072FB681A6493
:104D7000FB681B6C03F48053002B05D1FB681B6C94
:104D800043F00102FB681A64F868FDF7EDFB0EE0E2
:104D9000FB681B6C03F01003002B03D0F868FFF7CF
:104DA00084FD04E0FB689B6BDB6C7868984700BF70
:104DB0001037BD4680BD80B584B000AF78607B6899
:104DC0009B6BFB60F868FFF766FD00BF1037BD46C0
:104DD00080BD80B584B000AF78607B689B6BFB6062
:104DE000FB6840221A64FB685B6C43F00402FB68BA
:104DF0005A64F868FFF759FD00BF1037BD4680BD03
:104E000080B485B000AF78607B6803F00703FB6077
:104E10000C4BDB68BB60BA684FF6FF031340BB6006
:104E2000FB681A02BB68134343F0BF6343F40033CB
:104E3000BB60044ABB68D36000BF1437BD465DF851
:104E4000047B704700ED00E080B400AF044BDB68EA
:104E50001B0A03F007031846BD465DF8047B704744
:104E600000ED00E080B483B000AF0346FB7197F91A
:104E70000730002B0BDBFB7903F01F02074997F982
:104E800007305B09012000FA02F241F8232000BF3D
:104E90000C37BD465DF8047B704700BF00E100E0C1
:104EA00080B483B000AF03463960FB7197F90730D7
:104EB000002B0ADB3B68DAB20C4997F90730120184
:104EC000D2B20B4483F800230AE03B68DAB2084907
:104ED000FB7903F00F03043B1201D2B20B441A76A4
:104EE00000BF0C37BD465DF8047B704700E100E071
:104EF00000ED00E080B489B000AFF860B9607A607E
:104F0000FB6803F00703FB61FB69C3F10703042B94
:104F100028BF0423BB61FB690433062B02D9FB695C
:104F2000033B00E000237B614FF0FF32BB6902FAD4
:104F300003F3DA43BB681A407B699A404FF0FF31B4
:104F40007B6901FA03F3D9437B680B40134318468E
:104F50002437BD465DF8047B704780B582B000AF52
:104F600078607868FFF74CFF00BF0837BD4680BD0A
:104F700080B586B000AF0346B9607A60FB7300234A
:104F80007B61FFF761FF78617A68B9687869FFF73C
:104F9000B1FF024697F90F3011461846FFF780FF20
:104FA00000BF1837BD4680BD80B582B000AF034654
:104FB000FB7197F907301846FFF754FF00BF083719
:104FC000BD4680BD80B586B000AF786000237B61B0
:104FD000FFF740F938617B68002B01D1012399E08C
:104FE0007B68022283F835207B68002283F8342016
:104FF0007B681B681A687B681B6822F001021A60D4
:105000000FE0FFF727F902463B69D31A052B08D9B1
:105010007B6820225A657B68032283F835200323AE
:1050200078E07B681B681B6803F00103002BE8D164
:105030007B681B681B687B617A69384B13407B6116
:105040007B685A687B689B681A437B68DB681A43F5
:105050007B681B691A437B685B691A437B689B69A1
:105060001A437B68DB691A437B681B6A13437A69BE
:1050700013437B617B685B6A042B07D17B68DA6A28
:105080007B681B6B13437A6913437B617B681B68E6
:105090007A691A607B681B685B697B617B6923F0B6
:1050A00007037B617B685B6A7A6913437B617B687A
:1050B0005B6A042B17D17B689B6A7A6913437B6117
:1050C0007B68DB6A002B0ED0786800F001FB03469A
:1050D000002B08D07B6840225A657B68012283F848
:1050E0003520012316E07B681B687A695A6178686D
:1050F00000F0B8FA0346FB607B68DB6D3F229A4004
:10510000FB689A607B6800225A657B68012283F8FD
:105110003520002318461837BD4680BD3F8010F06B
:1051200080B586B000AFF860B9607A603B6000235C
:10513000FB75FB689B6D3B61FB6893F83430012B7A
:1051400001D1022340E0FB68012283F83420FB6890
:1051500093F83530DBB2012B2FD1FB68022283F8A4
:105160003520FB6800225A653B687A68B968F868A0
:1051700000F04AFAFB68DB6D3F229A403B699A6077
:10518000FB681B681A68FB681B6842F016021A600D
:10519000FB681B6C002B07D0FB681B681A68FB6858
:1051A0001B6842F008021A60FB681B681A68FB68FB
:1051B0001B6842F001021A6005E0FB68002283F8D8
:1051C00034200223FB75FB7D18461837BD4680BD91
:1051D00080B584B000AF78607B689B6DFB60FFF7A3
:1051E00039F8B8607B6893F83530DBB2022B08D011
:1051F0007B6880225A657B68002283F83420012373
:1052000052E07B681B681A687B681B6822F01602F4
:105210001A607B681B685A697B681B6822F08002F1
:105220005A617B681B6C002B03D17B689B6C002B45
:1052300007D07B681B681A687B681B6822F008022D
:105240001A607B681B681A687B681B6822F0010281
:105250001A6013E0FEF7FEFF0246BB68D31A052B67
:105260000CD97B6820225A657B68032283F835209D
:105270007B68002283F83420032315E07B681B68D9
:105280001B6803F00103002BE4D17B68DB6D3F2238
:105290009A40FB689A607B68012283F835207B681E
:1052A000002283F83420002318461037BD4680BD05
:1052B00080B483B000AF78607B6893F83530DBB2A0
:1052C000022B04D07B6880225A6501230CE07B68A6
:1052D000052283F835207B681B681A687B681B6889
:1052E00022F001021A60002318460C37BD465DF813
:1052F000047B704780B586B000AF78600023BB6048
:105300008E4B1B688E4AA2FB03239B0A7B617B6842
:105310009B6D3B613B691B68FB607B68DB6D082212
:105320009A40FB681340002B1AD07B681B681B68EF
:1053300003F00403002B13D07B681B681A687B689A
:105340001B6822F004021A607B68DB6D08229A4019
:105350003B699A607B685B6D43F001027B685A652C
:105360007B68DB6D01229A40FB681340002B12D052
:105370007B681B685B6903F08003002B0BD07B68A4
:10538000DB6D01229A403B699A607B685B6D43F05C
:1053900002027B685A657B68DB6D04229A40FB68D9
:1053A0001340002B12D07B681B681B6803F00203BC
:1053B000002B0BD07B68DB6D04229A403B699A601E
:1053C0007B685B6D43F004027B685A657B68DB6D2C
:1053D00010229A40FB681340002B43D07B681B6867
:1053E0001B6803F00803002B3CD07B68DB6D1022A8
:1053F0009A403B699A607B681B681B6803F48023B2
:10540000002B18D07B681B681B6803F40023002B5B
:1054100008D17B681B6C002B24D07B681B6C7868E0
:1054200098471FE07B689B6C002B1BD07B689B6CB4
:105430007868984716E07B681B681B6803F48073E4
:10544000002B07D17B681B681A687B681B6822F0F9
:1054500008021A607B681B6C002B03D07B681B6CF6
:10546000786898477B68DB6D20229A40FB68134080
:10547000002B00F08F807B681B681B6803F0100313
:10548000002B00F087807B68DB6D20229A403B690F
:105490009A607B6893F83530DBB2052B36D17B6898
:1054A0001B681A687B681B6822F016021A607B680A
:1054B0001B685A697B681B6822F080025A617B680E
:1054C0001B6C002B03D17B689B6C002B07D07B6887
:1054D0001B681A687B681B6822F008021A607B68E8
:1054E000DB6D3F229A403B699A607B68012283F81A
:1054F00035207B68002283F834207B681B6D002BED
:105500007ED07B681B6D7868984779E07B681B6864
:105510001B6803F48023002B1DD07B681B681B686D
:1055200003F40023002B0DD17B685B6C002B31D082
:105530007B685B6C786898472CE000BF1400002003
:10554000B5814E1B7B68DB6B002B23D07B68DB6B4C
:10555000786898471EE07B681B681B6803F48073BB
:10556000002B0FD17B681B681A687B681B6822F0D0
:1055700010021A607B68012283F835207B680022C4
:1055800083F834207B68DB6B002B03D07B68DB6BFC
:10559000786898477B685B6D002B32D07B685B6DC9
:1055A00003F00103002B22D07B68052283F835200D
:1055B0007B681B681A687B681B6822F001021A600E
:1055C000BB680133BB607A699A4207D37B681B686A
:1055D0001B6803F00103002BF2D100E000BF7B68E1
:1055E000012283F835207B68002283F834207B6811
:1055F000DB6C002B05D07B68DB6C7868984700E09B
:1056000000BF1837BD4680BD80B485B000AFF860DC
:10561000B9607A603B60FB681B681A68FB681B68AE
:1056200022F480221A60FB681B683A685A60FB68A3
:105630009B68402B08D1FB681B687A689A60FB68FE
:105640001B68BA68DA6007E0FB681B68BA689A6092
:10565000FB681B687A68DA6000BF1437BD465DF8E6
:10566000047B704780B485B000AF78607B681B68AE
:10567000DBB2103B144AA2FB03231B09FB60134A55
:10568000FB6813441B781A467B68DA65FB68032BBA
:1056900009D97B681B6823F47F7323F003031A1D69
:1056A0007B689A6507E07B681B6823F47F7323F0AF
:1056B00003037A6893657B689B6D18461437BD4673
:1056C0005DF8047B704700BFABAAAAAAA0E300085C
:1056D00080B485B000AF78600023FB737B689B6A61
:1056E000BB607B689B69002B1FD1BB68032B56D81E
:1056F00001A252F823F000BF095700081B57000809
:10570000095700089F5700087B68DB6A03F0807325
:10571000002B46D00123FB7343E07B68DB6AB3F1C7
:10572000C07F40D10123FB733DE07B689B69B3F5EB
:10573000005F21D1BB68032B37D801A252F823F0B8
:10574000515700085757000851570008695700087B
:105750000123FB7330E07B68DB6A03F08073002B6E
:1057600025D00123FB7322E07B68DB6AB3F1C07FA5
:105770001FD10123FB731CE0BB68022B03D9BB685C
:10578000032B03D018E00123FB7315E07B68DB6A71
:1057900003F08073002B0ED00123FB730BE000BFDE
:1057A0000AE000BF08E000BF06E000BF04E000BF61
:1057B00002E000BF00E000BFFB7B18461437BD4687
:1057C0005DF8047B704700BF80B489B000AF78609B
:1057D000396000237B6100233B610023BB61002310
:1057E000FB616BE10122FB6902FA03F37B613B6819
:1057F0001B687A6913403B613A697B699A4240F0C1
:105800005A813B685B6803F00303012B05D03B68BA
:105810005B6803F00303022B30D17B689B68BB619C
:10582000FB695B00032202FA03F3DB43BA6913400E
:10583000BB613B68DA68FB695B0002FA03F3BA6993
:105840001343BB617B68BA699A607B685B68BB6124
:105850000122FB6902FA03F3DB43BA691340BB611F
:105860003B685B681B0903F00102FB6902FA03F362
:10587000BA691343BB617B68BA695A603B685B686D
:1058800003F00303032B17D07B68DB68BB61FB6964
:105890005B00032202FA03F3DB43BA691340BB61E6
:1058A0003B689A68FB695B0002FA03F3BA69134329
:1058B000BB617B68BA69DA603B685B6803F003032D
:1058C000022B23D1FB69DA087B68083253F82230B7
:1058D000BB61FB6903F007039B000F2202FA03F38D
:1058E000DB43BA691340BB613B681A69FB6903F08B
:1058F00007039B0002FA03F3BA691343BB61FB6918
:10590000DA087B680832B96943F822107B681B68A3
:10591000BB61FB695B00032202FA03F3DB43BA6954
:105920001340BB613B685B6803F00302FB695B00EB
:1059300002FA03F3BA691343BB617B68BA691A6060
:105940003B685B6803F44033002B00F0B480002315
:10595000FB60604B5B6C5F4A43F4804353645D4B78
:105960005B6C03F48043FB60FB685B4AFB699B084C
:10597000023352F82330BB61FB6903F003039B0041
:105980000F2202FA03F3DB43BA691340BB617B6861
:10599000524A93422BD07B68514A934225D07B6870
:1059A000504A93421FD07B684F4A934219D07B687C
:1059B0004E4A934213D07B684D4A93420DD07B6888
:1059C0004C4A934207D07B684B4A934201D107234C
:1059D0000EE008230CE006230AE0052308E0042378
:1059E00006E0032304E0022302E0012300E0002399
:1059F000FA6902F0030292009340BA691343BB6153
:105A00003549FB699B080233BA6941F823203B4BB7
:105A10009B68BB613B69DB43BA691340BB613B6870
:105A20005B6803F48013002B03D0BA693B6913430E
:105A3000BB61324ABB699360304BDB68BB613B6939
:105A4000DB43BA691340BB613B685B6803F4001336
:105A5000002B03D0BA693B691343BB61274ABB697A
:105A6000D360264B5B68BB613B69DB43BA6913407B
:105A7000BB613B685B6803F40033002B03D0BA6959
:105A80003B691343BB611D4ABB6953601B4B1B68D9
:105A9000BB613B69DB43BA691340BB613B685B6830
:105AA00003F48033002B03D0BA693B691343BB6115
:105AB000124ABB691360FB690133FB61FB690F2B61
:105AC0007FF690AE00BF00BF2437BD465DF8047B73
:105AD000704700BF0038024000380140000002401B
