:020000040800F2
:100000000000022065370008253500082B35000860
:1000100031350008373500083D3500080000000084
:1000200000000000000000000000000061B50008B2
:100030004335000800000000B1B70008E99000084F
:10004000B5370008B5370008B5370008B5370008E0
:10005000B5370008B5370008B5370008B5370008D0
:10006000B5370008B5370008B5370008B5370008C0
:10007000B5370008B5370008B5370008B5370008B0
:10008000B5370008B5370008B5370008B5370008A0
:10009000B5370008B5370008B5370008B537000890
:1000A000B537000851350008B5370008B5370008E6
:1000B000B5370008B537000865350008B5370008C2
:1000C000B5370008B5370008B5370008B537000860
:1000D000B5370008B5370008B5370008793500088E
:1000E000B5370008B5370008B5370008B537000840
:1000F000B5370008B5370008B5370008B537000830
:10010000B5370008B5370008B5370008B53700081F
:10011000B5370008B53700088D350008B537000839
:10012000A1350008B5370008B5370008B537000815
:10013000B5370008B5370008B5370008B5370008EF
:10014000B5370008B5370008B5370008B5370008DF
:10015000B5370008B5370008B5370008B5370008CF
:10016000B5370008B5370008B5370008B5370008BF
:10017000B5370008B5370008B537000800000000A3
:08018000B5370008B53700088F
:1001900010B5054C237833B9044B13B10448AFF3C1
:1001A00000800123237010BDF0010020000000003A
:1001B000F0F3000808B5034B1BB103490348AFF344
:1001C000008008BD00000000F4010020F0F30008EA
:1001D000034613F8012B002AFBD1181A0138704787
:1001E00001F0FF01102A2BDB10F0070F08D010F8E8
:1001F000013B013A8B422DD010F0070F42B3F6D1EC
:10020000F0B441EA012141EA014122F007047FF004
:1002100000070023F0E80256083C85EA010586EA5B
:10022000010685FA47F5A3FA87F586FA47F6A5FA97
:1002300087F68EB9EED1F0BC01F0FF0102F00702A3
:1002400032B110F8013B013A83EA010313B1F8D14E
:100250000020704701387047002D06BF354603382F
:10026000073815F0010F07D1013015F4807F02BF68
:10027000013015F4C03F0130F0BC0138704700BFB9
:1002800081F0004102E000BF83F0004330B54FEA47
:1002900041044FEA430594EA050F08BF90EA020FB4
:1002A0001FBF54EA000C55EA020C7FEA645C7FEA47
:1002B000655C00F0E2804FEA5454D4EB5555B8BF6A
:1002C0006D420CDD2C4480EA020281EA030382EADB
:1002D000000083EA010180EA020281EA0303362D6D
:1002E00088BF30BD11F0004F4FEA01314FF4801C40
:1002F0004CEA113102D0404261EB410113F0004F52
:100300004FEA03334CEA133302D0524263EB430308
:1003100094EA050F00F0A780A4F10104D5F1200EA6
:100320000DDB02FA0EFC22FA05F2801841F1000101
:1003300003FA0EF2801843FA05F359410EE0A5F1D5
:1003400020050EF1200E012A03FA0EFC28BF4CF006
:10035000020C43FA05F3C01851EBE37101F00045BC
:1003600007D54FF0000EDCF1000C7EEB00006EEBC9
:100370000101B1F5801F1BD3B1F5001F0CD3490853
:100380005FEA30004FEA3C0C04F101044FEA4452AA
:1003900012F5800F80F09A80BCF1004F08BF5FEA31
:1003A000500C50F1000041EB045141EA050130BD11
:1003B0005FEA4C0C404141EB0101013C28BFB1F523
:1003C000801FE9D291F0000F04BF01460020B1FA6E
:1003D00081F308BF2033A3F10B03B3F120020CDA41
:1003E0000C3208DD02F1140CC2F10C0201FA0CF01F
:1003F00021FA02F10CE002F11402D8BFC2F1200C84
:1004000001FA02F120FA0CFCDCBF41EA0C01904039
:10041000E41AA2BF01EB0451294330BD6FEA040482
:100420001F3C1CDA0C340EDC04F11404C4F120026D
:1004300020FA04F001FA02F340EA030021FA04F37F
:1004400045EA030130BDC4F10C04C4F1200220FAD6
:1004500002F001FA04F340EA0300294630BD21FA14
:1004600004F0294630BD94F0000F83F4801306BFDA
:1004700081F480110134013D4EE77FEA645C18BFCE
:100480007FEA655C29D094EA050F08BF90EA020F65
:1004900005D054EA000C04BF1946104630BD91EA5D
:1004A000030F1EBF0021002030BD5FEA545C05D160
:1004B0004000494128BF41F0004130BD14F580049F
:1004C0003CBF01F5801130BD01F0004545F0FE4113
:1004D00041F470014FF0000030BD7FEA645C1ABF48
:1004E000194610467FEA655C1CBF0B46024650EA7F
:1004F000013406BF52EA033591EA030F41F40021AB
:1005000030BD00BF90F0000F04BF0021704730B530
:100510004FF4806404F132044FF000054FF0000105
:1005200050E700BF90F0000F04BF0021704730B5C6
:100530004FF4806404F1320410F0004548BF40429B
:100540004FF000013EE700BF42004FEAE2014FEAF0
:1005500031014FEA02701FBF12F07F4393F07F4FCB
:1005600081F06051704732F07F4208BF704793F0CE
:100570007F4F04BF41F40021704730B54FF46074E1
:1005800001F0004521F000411CE700BF50EA0102E4
:1005900008BF704730B54FF000050AE050EA01028D
:1005A00008BF704730B511F0004502D5404261EBFD
:1005B00041014FF4806404F132045FEA915C3FF43E
:1005C000D8AE4FF003025FEADC0C18BF03325FEADB
:1005D000DC0C18BF033202EBDC02C2F1200300FA8C
:1005E00003FC20FA02F001FA03FE40EA0E0021FAB1
:1005F00002F11444BDE600BF70B54FF0FF0C4CF49F
:10060000E06C1CEA11541DBF1CEA135594EA0C0F50
:1006100095EA0C0F00F0DEF82C4481EA030621EA8B
:100620004C5123EA4C5350EA013518BF52EA0335C6
:1006300041F4801143F4801338D0A0FB02CE4FF078
:100640000005E1FB02E506F00042E0FB03E54FF0A8
:100650000006E1FB03569CF0000F18BF4EF0010EA0
:10066000A4F1FF04B6F5007F64F5407404D25FEA9C
:100670004E0E6D4146EB060642EAC62141EA55514F
:100680004FEAC52040EA5E504FEACE2EB4F1FD0C91
:1006900088BFBCF5E06F1ED8BEF1004F08BF5FEA0F
:1006A000500E50F1000041EB045170BD06F00046C1
:1006B00046EA010140EA020081EA0301B4EB5C046E
:1006C000C2BFD4EB0C0541EA045170BD41F4801166
:1006D0004FF0000E013C00F3AB8014F1360FDEBF8B
:1006E000002001F0004170BDC4F10004203C35DA67
:1006F0000C341BDC04F11404C4F1200500FA05F3EA
:1007000020FA04F001FA05F240EA020001F000428A
:1007100021F0004110EBD37021FA04F642EB060100
:100720005EEA430E08BF20EAD37070BDC4F10C042A
:10073000C4F1200500FA04F320FA05F001FA04F2EE
:1007400040EA020001F0004110EBD37041F10001DA
:100750005EEA430E08BF20EAD37070BDC4F12005E5
:1007600000FA05F24EEA020E20FA04F301FA05F24D
:1007700043EA020321FA04F001F0004121FA04F2F5
:1007800020EA020000EBD3705EEA430E08BF20EAC5
:10079000D37070BD94F0000F0FD101F000464000FF
:1007A00041EB010111F4801F08BF013CF7D041EA81
:1007B000060195F0000F18BF704703F00046520085
:1007C00043EB030313F4801F08BF013DF7D043EA56
:1007D0000603704794EA0C0F0CEA135518BF95EA0C
:1007E0000C0F0CD050EA410618BF52EA4306D1D193
:1007F00081EA030101F000414FF0000070BD50EAB2
:10080000410606BF1046194652EA430619D094EA3B
:100810000C0F02D150EA013613D195EA0C0F05D125
:1008200052EA03361CBF104619460AD181EA030179
:1008300001F0004141F0FE4141F470014FF0000031
:1008400070BD41F0FE4141F4780170BD70B54FF0CC
:10085000FF0C4CF4E06C1CEA11541DBF1CEA13554C
:1008600094EA0C0F95EA0C0F00F0A7F8A4EB05042E
:1008700081EA030E52EA03354FEA013100F0888025
:100880004FEA03334FF0805545EA131343EA1263EE
:100890004FEA022245EA111545EA10654FEA0026A3
:1008A0000EF000419D4208BF964244F1FD0404F55C
:1008B000407402D25B084FEA3202B61A65EB0305B8
:1008C0005B084FEA32024FF480104FF4002CB6EB75
:1008D000020E75EB030E22BFB61A754640EA0C00F5
:1008E0005B084FEA3202B6EB020E75EB030E22BF35
:1008F000B61A754640EA5C005B084FEA3202B6EB76
:10090000020E75EB030E22BFB61A754640EA9C0034
:100910005B084FEA3202B6EB020E75EB030E22BF04
:10092000B61A754640EADC0055EA060E18D04FEAC2
:10093000051545EA16754FEA06164FEAC30343EA62
:1009400052734FEAC2025FEA1C1CC0D111F4801F2F
:100950000BD141EA00014FF000004FF0004CB6E728
:1009600011F4801F04BF01430020B4F1FD0C88BFC7
:10097000BCF5E06F3FF6AFAEB5EB030C04BFB6EBD2
:10098000020C5FEA500C50F1000041EB045170BDC5
:100990000EF0004E4EEA113114EB5C04C2BFD4EBF2
:1009A0000C0541EA045170BD41F480114FF0000E76
:1009B000013C90E645EA060E8DE60CEA135594EAF2
:1009C0000C0F08BF95EA0C0F3FF43BAF94EA0C0FF5
:1009D0000AD150EA01347FF434AF95EA0C0F7FF46A
:1009E00025AF104619462CE795EA0C0F06D152EABE
:1009F00003353FF4FDAE1046194622E750EA4106A2
:100A000018BF52EA43067FF4C5AE50EA41047FF4B2
:100A10000DAF52EA43057FF4EBAE12E74FF0FF3C17
:100A200006E000BF4FF0010C02E000BF4FF0010CE8
:100A30004DF804CD4FEA410C7FEA6C5C4FEA430C61
:100A400018BF7FEA6C5C1BD001B050EA410C0CBFB0
:100A500052EA430C91EA030F02BF90EA020F002012
:100A6000704710F1000F91EA030F58BF994208BF79
:100A700090422CBFD8176FEAE37040F00100704736
:100A80004FEA410C7FEA6C5C02D150EA013C07D18D
:100A90004FEA430C7FEA6C5CD6D152EA033CD3D0D8
:100AA0005DF8040B704700BF8446104662468C46D2
:100AB0001946634600E000BF01B5FFF7B7FF002805
:100AC00048BF10F1000F01BD4DF808EDFFF7F4FF2E
:100AD0000CBF012000205DF808FB00BF4DF808EDB9
:100AE000FFF7EAFF34BF012000205DF808FB00BFDC
:100AF0004DF808EDFFF7E0FF94BF012000205DF8FE
:100B000008FB00BF4DF808EDFFF7CEFF94BF0120B2
:100B100000205DF808FB00BF4DF808EDFFF7C4FFAB
:100B200034BF012000205DF808FB00BF4FEA410CF4
:100B30007FEA6C5C02D150EA013C0AD14FEA430CD7
:100B40007FEA6C5C02D152EA033C02D14FF0000014
:100B500070474FF0010070474FEA410212F5001252
:100B600015D211D56FF47873B3EB625212D94FEAF4
:100B7000C12343F0004343EA505311F0004F23FADE
:100B800002F018BF404270474FF00000704750EA33
:100B9000013005D111F0004008BF6FF000407047F0
:100BA0004FF00000704700BF4A0011D212F500124A
:100BB00011D20DD56FF47873B3EB62520ED44FEAB5
:100BC000C12343F0004343EA505323FA02F0704735
:100BD0004FF00000704750EA013002D14FF0FF3073
:100BE00070474FF0000070474FEA4102B2F1E04316
:100BF00024BFB3F5001CDCF1FE5C0DD901F0004C04
:100C00004FEAC0024CEA5070B2F1004F40EB830053
:100C100008BF20F00100704711F0804F21D113F17F
:100C20003872BCBF01F00040704741F480114FEAB8
:100C30005252C2F11802C2F1200C10FA0CF320FA41
:100C400002F018BF40F001004FEAC1234FEAD3235E
:100C500003FA0CFC40EA0C0023FA02F34FEA4303C8
:100C6000CCE77FEA625307D150EA01331EBF4FF051
:100C7000FE4040F44000704701F0004040F0FE406C
:100C800040F40000704700BF53B94AB9002908BFBB
:100C900000281CBF4FF0FF314FF0FF3000F074B957
:100CA000ADF1080C6DE904CE00F006F8DDF804E0C3
:100CB000DDE9022304B070472DE9F047089D0446A2
:100CC0008E46002B4DD18A42944669D9B2FA82F2FF
:100CD00052B101FA02F3C2F1200120FA01F10CFA3B
:100CE00002FC41EA030E94404FEA1C48210CBEFB73
:100CF000F8F61FFA8CF708FB16E341EA034306FBFC
:100D000007F199420AD91CEB030306F1FF3080F08A
:100D10001F81994240F21C81023E63445B1AA4B2D7
:100D2000B3FBF8F008FB103344EA034400FB07F779
:100D3000A7420AD91CEB040400F1FF3380F00A81BA
:100D4000A74240F207816444023840EA0640E41BAF
:100D500000261DB1D4400023C5E900433146BDE85B
:100D6000F0878B4209D9002D00F0EF800026C5E9FD
:100D7000000130463146BDE8F087B3FA83F6002E15
:100D80004AD18B4202D3824200F2F980841A61EB8D
:100D9000030301209E46002DE0D0C5E9004EDDE7AB
:100DA00002B9FFDEB2FA82F2002A40F09280A1EB93
:100DB0000C014FEA1C471FFA8CFE0126200CB1FBE8
:100DC000F7F307FB131140EA01410EFB03F08842E1
:100DD00008D91CEB010103F1FF3802D2884200F26E
:100DE000CB804346091AA4B2B1FBF7F007FB101100
:100DF00044EA01440EFB00FEA64508D91CEB04049E
:100E000000F1FF3102D2A64500F2BB800846A4EBF8
:100E10000E0440EA03409CE7C6F12007B34022FAE3
:100E200007FC4CEA030C20FA07F401FA06F31C4312
:100E3000F9404FEA1C4900FA06F3B1FBF9F8200C1F
:100E40001FFA8CFE09FB181140EA014108FB0EF065
:100E5000884202FA06F20BD91CEB010108F1FF3AB5
:100E600080F08880884240F28580A8F102086144C1
:100E7000091AA4B2B1FBF9F009FB101144EA0141CF
:100E800000FB0EFE8E4508D91CEB010100F1FF347A
:100E90006CD28E456AD90238614440EA0840A0FB12
:100EA0000294A1EB0E01A142C846A64656D353D0E8
:100EB0005DB1B3EB080261EB0E0101FA07F722FA0C
:100EC00006F3F1401F43C5E9007100263146BDE835
:100ED000F087C2F12003D8400CFA02FC21FA03F398
:100EE000914001434FEA1C471FFA8CFEB3FBF7F019
:100EF00007FB10360B0C43EA064300FB0EF69E423E
:100F000004FA02F408D91CEB030300F1FF382FD2D6
:100F10009E422DD9023863449B1B89B2B3FBF7F67E
:100F200007FB163341EA034106FB0EF38B4208D957
:100F30001CEB010106F1FF3816D28B4214D9023E98
:100F40006144C91A46EA004638E72E46284605E7B6
:100F50000646E3E61846F8E64B45A9D2B9EB020887
:100F600064EB0C0E0138A3E74646EAE7204694E717
:100F70004046D1E7D0467BE7023B614432E730464A
:100F800009E76444023842E7704700BF80B400AF0D
:100F9000054B00221A60054B00221A6000BFBD46B7
:100FA0005DF8047B704700BFF0040020F4040020CB
:100FB00080B500AF00220421044803F05DFE012249
:100FC0000821024803F058FE00BF80BD0000024027
:100FD00080B500AF01220421044803F04DFE002239
:100FE0000821024803F048FE00BF80BD0000024017
:100FF00080B500AF00222021044803F03DFE01220D
:101000001021024803F038FE00BF80BD00000240FE
:1010100080B500AF01222021044803F02DFE0022FC
:101020001021024803F028FE00BF80BD00000240EE
:1010300080B584B002AF03463960FB710F4AFB797B
:1010400013700F4B1B789BB25B0099B20A2300937D
:1010500001230A4A0B4803F06DFF094B1B789BB232
:101060005B0099B21423009302233A68054804F008
:101070005FF800BF0837BD4680BD00BFDC0400201C
:1010800004000020B402002080B584B002AF034603
:101090000A46FB711346BB710A4AFB791370094A71
:1010A000BB795370084B1B789BB25B0099B2142339
:1010B00000930223034A054803F03CFF00BF0837B2
:1010C000BD4680BDDC04002004000020B4020020E6
:1010D00080B500AF00210620FFF7D6FF0A2008F0F8
:1010E00014F980210320FFF7CFFF0A2008F00DF943
:1010F00007210720FFF7C8FF0A2008F006F90121A1
:101100000620FFF7C1FF0A2008F0FFF820217F200A
:10111000FFF7BAFF0A2008F0F8F82F210120FFF7A7
:10112000B3FF0A2008F0F1F800210020FFF7ACFF20
:101130000A2008F0EAF800217F20FFF7A5FF0A2027
:1011400008F0E3F800210720FFF79EFF0A2008F0CF
:10115000DCF800BF80BD0000B0B584B000AF78609F
:101160003960674B01221A60664B1B6894221A642F
:101170004FF00002644BC7E9022364494FF00002BC
:101180004FF00003C1E900237B68652B0CD15C4B59
:101190001B684FF47A6202FB03F35D4A13605C4BF9
:1011A0001B685C4A13600BE05B4B1B68544A126877
:1011B00002FB03F3564A1360554B1B68554A1360F4
:1011C000564B1A68564B1B6813441846FFF7AAF98A
:1011D00004460D467B6807EE903AB8EEE77ADFEDFD
:1011E000516AC7EE267A77EEA77A17EE900AFFF7D4
:1011F000ABF9D7E90223FFF7FFF902460B46204679
:101200002946FFF77FFC0346002B07D1464B1B788E
:101210001F2B03D9454B1B68132BD1DCFFF7B6FE00
:101220003B68012B54D17B6807EE903AB8EEE77A21
:10123000DFED3C6AC7EE267A77EEA77A17EE900AC2
:10124000FFF782F9D7E90223FFF7D6F902460B46EA
:1012500014461D46314B1A68314B1B68134418461F
:10126000FFF760F902460B4620462946FFF70CF8C7
:1012700002460B4610461946FFF76EFC03462C4A01
:1012800013607868FFF74EF904460D46284B1B683B
:101290001846FFF747F916A3D3E90023FFF7D6FA5C
:1012A00002460B461046194613A3D3E90023FFF765
:1012B000A3F902460B4620462946FEF7E5FF024603
:1012C0000B4610461946FFF747FC0346184A1360C1
:1012D00000BF124B00221A60114B00221A60094B0A
:1012E0001B6896221A6400BF1037BD46B0BD00BF10
:1012F000000000000060A8400AD7A3703D0A3540F6
:1013000000000020080300200060984080050020B5
:10131000F0040020F40400200800002074050020E0
:1013200078050020EC51A8419C050020980500207C
:10133000A005002000000000B0B588B000AF7860C4
:101340003960874A3B681360864B1B6896221A6493
:101350004FF000024FF00003C7E90623804B1B68E3
:10136000012B05D14FF000027F4BC7E9062309E0AE
:101370007B4B1B68B3F1FF3F04D14FF000027A4B67
:10138000C7E9062379494FF000024FF00003C1E995
:1013900000234FF000024FF00003C7E902237B68EF
:1013A000152B0CD16E4B1B6840F2DC5202FB03F391
:1013B0006F4A13606E4B1B686E4A13600DE06E4BF4
:1013C0001B6803F5FA73664A126802FB03F3684A66
:1013D0001360674B1B68674A13600A2007F095FF8C
:1013E0003B68012B2BD1614BD3E900014FF0000288
:1013F000624BFFF701F902460B4614461D464FF0BB
:1014000000024FF00003D7E90201FFF7F5F80246AA
:101410000B4620462946FEF739FF02460B4610468A
:1014200019464DA3D3E90023FEF730FF02460B46D1
:1014300010461946FFF790FB03467B612CE03B68A2
:10144000B3F1FF3F28D1494BD3E900014FF000022F
:101450004A4BFFF7D1F802460B4614461D464FF0A3
:1014600000024FF00003D7E90201FFF7C5F802467A
:101470000B4620462946FEF709FF02460B4636A1D9
:10148000D1E90001FEF700FF02460B46104619465F
:10149000FFF762FB03467B617B698C2B01DC8C23AD
:1014A0007B617B69A42B01DDA5237B612D4B1B6830
:1014B00096221A640A2007F028FF2A4B1B687A69D3
:1014C0001A640A2007F021FF284BD3E90023D7E94B
:1014D0000201FEF7DBFE02460B46C7E90223284B5A
:1014E0001A68284B1B6813441846FFF71BF804467C
:1014F0000D467B6807EE903AB8EEE77ADFED226A98
:10150000C7EE267A77EEA77A17EE900AFFF71CF857
:10151000D7E90623FFF770F802460B462046294616
:10152000FFF7F0FA0346002B02D0FFF72FFD00E093
:1015300053E7FFF72BFD124B00221A60114B0022DC
:101540001A60084B1B6896221A6400BF2037BD46FC
:10155000B0BD00BFAFF300800000000000C06240DB
:101560000000002008030020006098408005002053
:10157000F0040020F40400200800002000002440B3
:101580007405002078050020EC51A84180B584B096
:1015900000AF7860224B1B68FF221A644FF4FA7088
:1015A00007F098FE1F4B4FF0FF321A601E494FF0B4
:1015B00000024FF00003C1E900231C4B1B681C4ACA
:1015C00013601B4B1B681B4A136002E00A2007F0E4
:1015D0009CFE7B685B421846FEF7A4FF124BD3E9E2
:1015E0000023FFF77BFA0346002BEFD1FFF7CEFC79
:1015F0004FF000024FF00003C7E902230E4B002218
:101600001A600E4B00221A60054B1B6896221A6462
:10161000C82007F05FFE00BF1037BD4680BD00BF89
:101620000803002090050020800500200C00002009
:10163000F0040020F4040020740500207805002048
:1016400080B584B000AF7860204B1B6869221A64B3
:101650004FF4FA7007F03EFE1D4B01221A601D493F
:101660004FF000024FF00003C1E900231A4B1B6842
:101670001A4A1360194B1B68194A13604FF0000295
:101680004FF00003C7E9022302E00A2007F03DFE05
:101690007868FEF747FF0F4BD3E90023FFF73CFACA
:1016A0000346002BF1D1FFF771FC0E4B00221A60AC
:1016B0000D4B00221A60054B1B6896221A64C82045
:1016C00007F008FE00BF1037BD4680BD08030020AC
:1016D00090050020800500200C000020F40400206C
:1016E000F0040020740500207805002080B584B047
:1016F00000AF7860224B1B684FF482721A644FF47B
:10170000FA7007F0E7FD1F4B4FF0FF321A601E49D9
:101710004FF000024FF00003C1E900231B4B40F6DD
:10172000C4121A601A4B4FF4FA721A6002E00A20CF
:1017300007F0EBFD7B685B421846FEF7F3FE124BA9
:10174000D3E90023FFF7CAF90346002BEFD1FFF7D7
:101750001DFC4FF000024FF00003C7E902230D4BC0
:1017600000221A600C4B00221A60054B1B6896225F
:101770001A64C82007F0AEFD00BF1037BD4680BD1B
:10178000080300209005002080050020F0040020C0
:10179000F4040020740500207805002080B584B092
:1017A00000AF7860204B1B6864221A644FF4FA7013
:1017B00007F090FD1D4B01221A601D494FF00002F9
:1017C0004FF00003C1E900231A4B40F6C4121A601F
:1017D000194B4FF4FA721A604FF000024FF00003F9
:1017E000C7E9022302E00A2007F08FFD7868FEF7C0
:1017F00099FE0F4BD3E90023FFF78EF90346002B28
:10180000F1D1FFF7C3FB0D4B00221A600C4B0022F5
:101810001A60054B1B6896221A64C82007F05AFD0F
:1018200000BF1037BD4680BD080300209005002092
:1018300080050020F4040020F0040020740500203E
:101840007805002080B584B000AF7860214B1B681C
:101850004FF482721A644FF4FA7007F03BFD1E4B8E
:1018600001221A601D494FF000024FF00003C1E948
:1018700000231B4B1B685B421A4A1360194B1B6801
:10188000194A13604FF000024FF00003C7E902232A
:1018900002E00A2007F039FD7868FEF743FE0F4B9F
:1018A000D3E90023FFF738F90346002BF1D1FFF706
:1018B0006DFB0E4B00221A600D4B00221A60054B87
:1018C0001B6896221A64C82007F004FD00BF103779
:1018D000BD4680BD08030020900500208005002043
:1018E0000C000020F0040020F40400207405002007
:1018F0007805002080B584B000AF7860224B1B686B
:1019000064221A644FF4FA7007F0E4FC1F4B4FF0A6
:10191000FF321A601E494FF000024FF00003C1E988
:1019200000231C4B1B685B421B4A13601A4B1B684D
:101930001A4A13604FF000024FF00003C7E9022378
:1019400002E00A2007F0E1FC7B685B421846FEF7E4
:10195000E9FD0F4BD3E90023FFF7C0F80346002B46
:10196000EFD1FFF713FB0E4B00221A600D4B002244
:101970001A60054B1B6896221A64C82007F0AAFC5F
:1019800000BF1037BD4680BD080300209005002031
:10199000800500200C000020F4040020F00400204A
:1019A000740500207805002080B582B000AF786013
:1019B000074B1B6896221A64C82007F0A6FC4FF05C
:1019C000FF317868FFF7B8FC00BF0837BD4680BD1F
:1019D00008030020B0B588B000AF78606423FB61D5
:1019E000344B4FF0FF321A60334B1B6896221A6457
:1019F000C82007F08AFC4FF00002304BC7E90423EF
:101A00002F494FF000024FF00003C1E900234FF0CF
:101A100000024FF00003C7E90223264B1B684FF476
:101A2000487202FB03F3274A1360264B1B68264AC1
:101A30001360264B1A68264B1B6813441846FEF7A2
:101A400071FD04460D46FB6907EE903AB8EEE77A61
:101A5000DFED206AC7EE267A77EEA77A17EE900AB6
:101A6000FEF772FDD7E90423FEF7C6FD02460B46DA
:101A700020462946FFF746F80346002B09D1164BAE
:101A80001B781A467B689342D3DA144B1B680F2BE2
:101A9000CFDDFFF77BFA00BF0C4B00221A600C4B26
:101AA00000221A60044B1B6896221A6400BF20377C
:101AB000BD46B0BD00000020080300200060984033
:101AC00080050020F0040020F404002074050020AC
:101AD00078050020EC51A8419C05002098050020C5
:101AE00080B500AF01F068FE00F08CF800F014FC47
:101AF00000F01CFB00F002FA00F062F900F0C2FBFB
:101B000000F050FA00F0A2FA00F02CF900F0E4FB2B
:101B100000F0D6F80021254804F08CFF0AF09CFA6A
:101B20003C21234805F008F93C21224805F004F93E
:101B30000021214804F05CFE04211F4804F058FEF7
:101B40000C211E4804F054FE04221D491D4806F0D5
:101B50000CFB07F0E3FA1C4A00211C4807F028FBA5
:101B600003461B4A13601B4A00211B4807F020FB59
:101B700003461A4A13601A4A00211A4807F018FB54
:101B80000346194A1360194A0021194807F010FB4F
:101B90000346184A1360184A0021184807F008FB4A
:101BA0000346174A136007F0DDFAFEE7E003002062
:101BB0005003002098030020280400200803002080
:101BC000C8040020700400208CF400089926000846
:101BD000B4040020B0F40008C1270008B8040020B5
:101BE000D4F40008352B0008BC040020F8F40008E9
:101BF000D92C0008C00400201CF50008852E000820
:101C0000C404002080B594B000AF07F12003302257
:101C1000002118460AF0E4FA07F10C0300221A60CA
:101C20005A609A60DA601A610023BB60224B1B6C19
:101C3000214A43F0805313641F4B1B6C03F0805305
:101C4000BB60BB6800237B601C4B1B681B4A43F4D2
:101C500080431360194B1B6803F480437B607B68EF
:101C600002233B620123FB6210233B630023BB631F
:101C700007F12003184603F0D7FF0346002B01D0DD
:101C800001F018F90F23FB6000233B6100237B6107
:101C90004FF48053BB610023FB6107F10C0300216B
:101CA000184604F039FA0346002B01D001F002F97E
:101CB00000BF5037BD4680BD003802400070004074
:101CC00080B584B000AF3B4600221A605A609A602B
:101CD000DA60214B214A1A601F4B00225A601E4BCA
:101CE00000229A601C4B00221A611B4B00221A76BC
:101CF000194B002283F82020174B0022DA62164B82
:101D0000174A9A62144B0022DA60134B0122DA61FF
:101D1000114B002283F830200F4B01225A610E48EC
:101D200001F0B0FD0346002B01D001F0C3F8002301
:101D30003B6001237B600023BB603B46194606489D
:101D400001F082FF0346002B01D001F0B3F800BF81
:101D50001037BD4680BD00BF0C02002000200140AE
:101D60000100000F80B500AF124B134A1A60114BEF
:101D7000124A5A600F4B00229A600E4B0022DA6022
:101D80000C4B4FF480421A610A4B00225A61094BF6
:101D900000229A61074B0022DA61064B00221A6288
:101DA000044802F083FF0346002B01D001F082F8C3
:101DB00000BF80BDB402002000540040A086010096
:101DC00080B596B000AF07F1480300221A605A6050
:101DD0009A60DA6007F1400300221A605A6007F146
:101DE000240300221A605A609A60DA601A615A610C
:101DF0009A613B1D2022002118460AF0F1F93D4B63
:101E00003D4A1A603B4BA0225A603A4B00229A602E
:101E1000384B4FF47A72DA60364B00221A61354B38
:101E200000225A61334B80229A61324804F0C6FB8B
:101E30000346002B01D001F03DF84FF48053BB6402
:101E400007F1480319462B4805F06AFA0346002BB0
:101E500001D001F02FF8274804F070FC0346002B56
:101E600001D001F027F800233B6400237B6407F1D5
:101E7000400319461F4805F0B7FF0346002B01D069
:101E800001F018F860237B620023BB620023FB6231
:101E900004237B630023BB630023FB6307F124035C
:101EA0000C221946134805F079F90346002B01D09E
:101EB00001F000F800237B600023BB600023FB607F
:101EC00000233B6100237B614FF40053BB6100237F
:101ED0003B623B1D1946074806F002F80346002BFB
:101EE00001D000F0E7FF034801F010FA00BF5837B7
:101EF000BD4680BD080300200000014080B58CB0C5
:101F000000AF07F10C032422002118460AF068F9FB
:101F10003B1D00221A605A60214B4FF080421A602C
:101F20001F4B00225A601E4B00229A601C4B4FF63A
:101F3000FF72DA601A4B00221A61194B00229A6173
:101F40000323FB6000233B6101237B610023BB6112
:101F50000023FB6100233B6201237B620023BB6201
:101F60000023FB6207F10C0319460D4804F03EFE06
:101F70000346002B01D000F09DFF00237B6000236F
:101F8000BB603B1D1946064805F02EFF0346002B9B
:101F900001D000F08FFF00BF3037BD4680BD00BFCD
:101FA0005003002080B58CB000AF07F10C03242251
:101FB000002118460AF014F93B1D00221A605A60ED
:101FC000204B214A1A601F4B00225A601D4B0022F1
:101FD0009A601C4B4FF6FF72DA601A4B00221A61AE
:101FE000184B00229A610323FB6000233B6101230D
:101FF0007B610023BB610023FB6100233B62012363
:102000007B620023BB620023FB6207F10C031946CD
:102010000C4804F0EBFD0346002B01D000F04AFF12
:1020200000237B600023BB603B1D1946054805F07B
:10203000DBFE0346002B01D000F03CFF00BF303731
:10204000BD4680BD980300200004004080B58AB0E2
:1020500000AF07F1180300221A605A609A60DA6034
:1020600007F1100300221A605A603B4600221A60F2
:102070005A609A60DA602B4B2B4A1A60294B0F2268
:102080005A60284B00229A60264B4FF6FE72DA60A7
:10209000244B00221A61234B00229A61214804F04C
:1020A0008DFA0346002B01D000F004FF4FF480535B
:1020B000BB6107F1180319461A4805F031F90346C8
:1020C000002B01D000F0F6FE164804F059FC034640
:1020D000002B01D000F0EEFE00233B6100237B616A
:1020E00007F1100319460F4805F07EFE0346002B4A
:1020F00001D000F0DFFE00233B6001237B60002362
:10210000BB600023FB603B4600221946054804F0F3
:10211000A9FF0346002B01D000F0CCFE00BF2837FA
:10212000BD4680BDE00300200008004080B596B0A9
:1021300000AF07F1480300221A605A609A60DA6023
:1021400007F1400300221A605A6007F124030022BD
:102150001A605A609A60DA601A615A619A613B1D8E
:102160002022002118460AF03BF8444B444A1A60EA
:10217000424B00225A60414B00229A603F4B41F68D
:102180001F42DA603D4B00221A613C4B00225A612B
:102190003A4B00229A61394804F010FA0346002BAA
:1021A00001D000F087FE4FF48053BB6407F1480371
:1021B0001946324805F0B4F80346002B01D000F070
:1021C00079FE2E4804F0BAFA0346002B01D000F045
:1021D00071FE00233B6400237B6407F14003194632
:1021E000264805F001FE0346002B01D000F062FEF8
:1021F00060237B620023BB620023FB6200233B63FE
:1022000000237B630023BB630023FB6307F12403EC
:1022100000221946194804F0C1FF0346002B01D0E3
:1022200000F048FE07F1240304221946134804F085
:10223000B5FF0346002B01D000F03CFE00237B607D
:102240000023BB600023FB6000233B6100237B6114
:102250004FF40053BB6100233B623B1D1946074806
:1022600005F03EFE0346002B01D000F023FE03489C
:1022700001F04CF800BF5837BD4680BD280400204F
:102280000004014080B500AF114B124A1A60104B98
:102290004FF4E1325A600E4B00229A600C4B002240
:1022A000DA600B4B00221A61094B0C225A61084B71
:1022B00000229A61064B0022DA61054805F076FE9D
:1022C0000346002B01D000F0F5FD00BF80BD00BF2C
:1022D000700400200048004080B582B000AF0023A9
:1022E0007B600C4B1B6B0B4A43F480031363094B5D
:1022F0001B6B03F480037B607B6800220521382080
:1023000001F078FF382001F091FF00BF0837BD468B
:1023100080BD00BF0038024080B58CB000AF07F12F
:102320001C0300221A605A609A60DA601A61002366
:10233000BB61544B1B6B534A43F010031363514B67
:102340001B6B03F01003BB61BB6900237B614D4B2A
:102350001B6B4C4A43F0800313634A4B1B6B03F027
:1023600080037B617B6900233B61464B1B6B454AC5
:1023700043F001031363434B1B6B03F001033B6109
:102380003B690023FB603F4B1B6B3E4A43F0040359
:1023900013633C4B1B6B03F00403FB60FB680023DF
:1023A000BB60384B1B6B374A43F008031363354B54
:1023B0001B6B03F00803BB60BB6800237B60314BE1
:1023C0001B6B304A43F0020313632E4B1B6B03F06D
:1023D00002037B607B6800224FF45E612A4802F0B2
:1023E0004BFC00224FF49E71284802F045FC4FF44C
:1023F000BC63FB6101233B6200237B620023BB6261
:1024000007F11C031946204802F09AFA4FF49E7314
:10241000FB6101233B6200237B620223BB6207F165
:102420001C031946194802F08BFA4FF40063FB6154
:1024300001233B6200237B620323BB6207F11C0381
:102440001946114802F07CFA4FF48073FB610023B7
:102450003B6200237B6207F11C0319460C4802F023
:102460006FFA2023FB6100233B6200237B6207F1AC
:102470001C031946074802F063FA00BF3037BD4617
:1024800080BD00BF00380240001002400000024042
:10249000000C02400004024080B582B000AF7860BA
:1024A0007B681B7F012B40F08380454B1B78002B02
:1024B0001AD10021786804F0FBFF0346414A1360FB
:1024C0003F4B01221A707B681B681A6A7B681B6885
:1024D00022F00A021A627B681B681A6A7B681B6812
:1024E00042F002021A6263E0354B1B78012B5FD188
:1024F0000021786804F0DCFF0346334A13607B68F0
:102500001B6800225A62304B1A682E4B1B689A4295
:1025100007D92D4B1A682B4B1B68D31A2B4A136013
:102520000FE0284B1A68284B1B689A4209D9264BA2
:102530001A68244B1B68D31A03F57F43FF33234AE1
:102540001360224B1B681846FDF7DCFF1AA3D3E982
:102550000023FEF751F802460B46104619464FF08D
:1025600000024FF08043FEF771F902460B46104619
:102570001946FEF719FB0346DAB2154B1A70104BD9
:1025800000221A707B681B681A6A7B681B6822F03D
:102590000A021A627B681A687B681B68126A1A62F0
:1025A0000C4B1B68DA680B4B1B6822F00202DA60E6
:1025B00000BF0837BD4680BD9CC420B07268A13FF3
:1025C000B8050020AC050020B0050020B4050020AF
:1025D0009C050020E003002080B500AF01224FF4ED
:1025E00000610B4802F048FB012006F073FE002258
:1025F0004FF40061064802F03FFB064B1B68DA68A7
:10260000044B1B6842F00202DA6000BF80BD00BFCD
:1026100000100240E003002080B582B000AF786077
:102620004FF6FF7304221649164805F00CFD164BB1
:102630001B68002B1BD1124B1A78144B1A70104BCD
:102640005B78303B642202FB03F10D4B9B78A3F1D6
:10265000300213469B0013445B00CA18084BDB781A
:10266000303B13440A4A1360074B01221A600422CC
:102670000349044805F079FD00BF0837BD4680BD19
:10268000C804002070040020F8040020A4050020E5
:10269000A80500200000000080B582B000AF78607F
:1026A0003B4B1B6896221A64FFF796FF394801F0EE
:1026B0002DF90A21374801F02EFA364801F0B6FA12
:1026C0000346354A1360344B1B681846FDF71AFF62
:1026D00002460B4643EC102B0CF086FC51EC100B21
:1026E00027A3D3E90023FDF787FF02460B461046D8
:1026F000194625A3D3E90023FDF7C8FD02460B4682
:1027000010461946FEF770FA034600EE103A0CF038
:1027100045FCF0EE407AFDEEE77A17EE902A1F4B6B
:102720001A601C4801F0C4F91C4B1B681A461C496E
:102730001C480AF0C7F91B4A14210A2009F05AFC68
:10274000194B1B781A46194919480AF0BBF9184A5F
:102750001E210A2009F04EFC164B1B681A4616492A
:1027600016480AF0AFF9154A28210A2009F042FC60
:1027700009F0CCFA052006F0ADFD95E7AFF3008037
:1027800052B81E85EB512CC07B14AE47E1AA5E40C7
:10279000080300200C02002094050020980500206A
:1027A00048F40008FC0400209C05002058F40008B0
:1027B0004C050020A005002068F400082405002036
:1027C00080B584B000AF7860B54B1B68002B00F07B
:1027D000A481B44B1B78772B0CD1B3494FF0000286
:1027E0004FF00003C1E90023B04B1B6801211846DC
:1027F000FEF7B2FCAB4B1B78622B0BD1AA494FF012
:1028000000024FF00003C1E90023A84B1B681846E3
:10281000FFF7E0F8A34B1B78662B11D1A2494FF0CC
:1028200000024FF00003C1E900230021C820FEF799
:1028300093FC4FF4FA7006F04DFD1620FFF7CAF82E
:10284000984B1B78732B08D1994B4FF0FF321A60CD
:10285000964B1B681846FFF7A7F8924B1B78612B25
:102860000BD191494FF000024FF00003C1E9002362
:102870008E4B1B681846FEF7E3FE8A4B1B78642BD1
:102880000BD189494FF000024FF00003C1E900234A
:10289000864B1B681846FEF779FE824B1B78712B1E
:1028A0000BD181494FF000024FF00003C1E9002332
:1028B0007E4B1B681846FEF771FF7A4B1B78652B21
:1028C0000BD179494FF000024FF00003C1E900231A
:1028D000764B1B681846FEF709FF724B1B786A2B74
:1028E0002BD171494FF000024FF00003C1E90023E2
:1028F0003720FEF753FF7720FEF748FE1C20FEF737
:102900004DFF1C20FEF79EFF01211520FEF714FD50
:10291000C82006F0DFFC1920FFF75CF8642006F001
:10292000D9FC644B1A78644B1A70634B1B78502B9C
:1029300003D901211F20FEF7FFFC5A4B1B786B2B9C
:102940002BD159494FF000024FF00003C1E9002399
:102950003620FEF7CBFE7720FEF772FE1920FEF739
:10296000C5FE1D20FEF7C6FF01211520FEF7E4FC81
:10297000C82006F0AFFC1920FFF72CF8642006F001
:10298000A9FC4C4B1A784C4B1A704B4B1B78502BB4
:1029900003D901211F20FEF7CFFC424B1B786E2B81
:1029A0004CD141494FF000024FF00003C1E9002330
:1029B0000121C820FEF7D0FB642006F08BFC1E200E
:1029C000FFF708F85820FEF7E9FE00210A20FEF77D
:1029D000C3FBC320FEF7DAFD01213720FEF7ACFC74
:1029E0005C20FEF783FE344B1B78322B07D9324B29
:1029F0001B78503301211846FEF79EFC06E02E4B53
:102A00001B78393301211846FEF796FC5920FEF752
:102A10006DFE01210A20FEF78FFC5920FEF7BEFE55
:102A200000219620FEF798FB642006F053FC192045
:102A3000FEF7D0FF01210B20FEF77EFC194B1B781F
:102A40006D2B5AD118494FF000024FF00003C1E935
:102A5000002301219620FEF77FFB642006F03AFC5C
:102A60001E20FEF7B7FF5A20FEF740FE00210A2085
:102A7000FEF772FBCE20FEF7E3FD01213720FEF7C3
:102A80005BFC5820FEF78AFE0B4B1B78322B15D9C6
:102A9000094B1B78503301211846FEF74DFC14E01A
:102AA000F8040020A405002088050020A8050020C7
:102AB000000000209C0500209D050020194B1B787C
:102AC000393301211846FEF737FC5720FEF766FE22
:102AD00001210A20FEF730FC5A20FEF707FE0021F4
:102AE0009620FEF739FB642006F0F4FB1920FEF770
:102AF00071FF01210B20FEF71FFC0B4B00221A6017
:102B00000A4B00221A602423FB7307F10F014FF6D2
:102B1000FF730122064805F096FAC82006F0F5FB7F
:102B200052E600BF9D050020A8050020F804002003
:102B30007004002080B59AB000AF78604FF00002BA
:102B40004FF00003C7E910234FF000024FF00003DD
:102B5000C7E90E234FF000024FF00003C7E90C2332
:102B60004FF000024FF00003C7E90A230023FB6582
:102B70000023BB6500237B6200233B620023FB64D0
:102B800000F050FE0246FB6CD31A092B40F28E80F7
:102B9000484B1B685B6A7B62474B1B685B6A3B6206
:102BA0007B6AB3F5FA4F06DD01237B667B6AC3F5CA
:102BB00080337B6504E04FF0FF337B667B6A7B6587
:102BC0003B6AB3F5FA4F07DD4FF0FF333B663B6AD4
:102BD000C3F580333B6503E001233B663B6A3B65FD
:102BE000364B1B683A6E9A4206D1354B1A683B6DDC
:102BF0001344334A136005E0314B1A683B6DD31A16
:102C00002F4A13602D4B1B687A6E9A4206D12D4BCA
:102C10001A687B6D13442B4A136005E0294B1A6830
:102C20007B6DD31A274A1360274B1B68FB65274B24
:102C30001B68BB65FB6D002B05DAFEF7C9F9FB6D60
:102C40005B42FB6501E0FEF7B3F9BB6D002B05DAD3
:102C5000FEF7DEF9BB6D5B42BB6501E0FEF7C8F92C
:102C6000FB6D41F65732934202DD41F65833FB6566
:102C7000BB6D41F65732934202DD41F65833BB65D6
:102C8000134B1B68FA6D5A63114B1B68BA6D9A633C
:102C90000D4B1B68002B074B1B6800225A62064B2A
:102CA0001B6800225A6200F0BDFDF8640A2006F09D
:102CB0002CFB65E750030020980300200000002053
:102CC0007805002074050020F0040020F4040020A2
:102CD0002804002000000000B0B58AB000AF786082
:102CE0000023BB8300237B8400237B62FEF7F0F983
:102CF00000233B8400F096FD78620A2006F005FB75
:102D00000A2006F002FB00F08DFD02467B6AD31A12
:102D1000632BF5D907F11C0319463720FEF788F914
:102D20003B7F1B021AB27B7F1BB213437B84B7F934
:102D300022301846FDF7F6FB4FF000024C4BFDF732
:102D4000A5FA02460B4614461D4600F06BFD0246EE
:102D50007B6AD31A1846FDF7D5FB41A3D3E90023BC
:102D6000FDF774FD02460B4620462946FDF744FC5C
:102D700002460B46104619463BA3D3E90023FDF754
:102D80003BFC02460B46104619463A4BD3E900235A
:102D9000FDF77CFA02460B463649C1E90023B7F934
:102DA00022301846FDF7BEFB4FF00002304BFDF716
:102DB0006DFA02460B4614461D4600F033FD0246EE
:102DC0007B6AD31A1846FDF79DFB25A3D3E90023A0
:102DD000FDF73CFD02460B4620462946FDF70CFC5C
:102DE00002460B46104619461FA3D3E90023FDF700
:102DF00003FC02460B46104619461F4BD3E900233D
:102E0000FDF744FA02460B461B49C1E90023194B62
:102E1000D3E900014FF00002184BFDF773FE0346A3
:102E2000002B06D013494FF000024FF00003C1E918
:102E30000023104BD3E900014FF00002104BFDF7C7
:102E400057FE0346002B06D00A494FF000024FF010
:102E50000003C1E9002300F0E5FC786250E700BF01
:102E6000000000000004D0408FC2F5285C8FF23FC4
:102E70000000F83F80050020880500200080864083
:102E8000008086C080B483B000AF7860FEE70000A9
:102E900080B582B000AF78607B681B68044A9342BB
:102EA00001D100F0ABFC00BF0837BD4680BD00BFBC
:102EB0000010004080B400AF72B600BFFEE7000013
:102EC00080B582B000AF00237B60124B5B6C114A6F
:102ED00043F4804353640F4B5B6C03F480437B608B
:102EE0007B6800233B600B4B1B6C0A4A43F080530A
:102EF0001364084B1B6C03F080533B603B6800225B
:102F00000F216FF0010001F075F900BF0837BD46D1
:102F100080BD00BF0038024080B58AB000AF786045
:102F200007F1140300221A605A609A60DA601A618D
:102F30007B681B683C4A934271D100233B613B4B49
:102F40005B6C3A4A43F480735364384B5B6C03F414
:102F500080733B613B690023FB60344B1B6B334A3E
:102F600043F001031363314B1B6B03F00103FB6060
:102F7000FB680023BB602D4B1B6B2C4A43F0040302
:102F800013632A4B1B6B03F00403BB60BB68012374
:102F90007B610323BB610023FB6107F11403194626
:102FA000234801F0CDFC10237B610323BB61002388
:102FB000FB6107F1140319461E4801F0C1FC1E4BCA
:102FC0001E4A1A601C4B00225A601B4B00229A605A
:102FD000194B0022DA60184B4FF480621A61164BCD
:102FE0004FF400625A61144B4FF400529A61124B35
:102FF0004FF48072DA61104B00221A620E4B0022ED
:103000005A620D4801F020F90346002B01D0FFF76A
:1030100051FF7B68084A9A63074A7B68936300BF45
:103020002837BD4680BD00BF002001400038024067
:1030300000000240000802405402002010640240D8
:1030400080B58AB000AF786007F1140300221A60DF
:103050005A609A60DA601A617B681B68194A934269
:103060002CD100233B61184B1B6B174A43F0020322
:103070001363154B1B6B03F002033B613B694FF479
:1030800040737B611223BB610023FB6103233B621E
:1030900004237B6207F1140319460C4801F050FC2D
:1030A0000023FB60084B1B6C074A43F400131364B6
:1030B000054B1B6C03F40013FB60FB6800BF283753
:1030C000BD4680BD0054004000380240000402406C
:1030D00080B58CB000AF786007F11C0300221A6045
:1030E0005A609A60DA601A617B681B68354A9342BD
:1030F00016D10023BB61344B5B6C334A43F00103B0
:103100005364314B5B6C03F00103BB61BB6900226C
:103110000521192001F06EF8192001F087F84DE023
:103120007B681B68294A934235D100237B61264B7B
:103130001B6C254A43F004031364234B1B6C03F000
:1031400004037B617B6900233B611F4B1B6B1E4AA1
:1031500043F0080313631C4B1B6B03F008033B6134
:103160003B694FF4A043FB6102233B6200237B6277
:103170000023BB620223FB6207F11C0319461448BB
:1031800001F0DEFB002205211E2001F033F81E2095
:1031900001F04CF812E07B681B680E4A93420DD197
:1031A0000023FB60084B5B6C074A43F00203536447
:1031B000054B5B6C03F00203FB60FB6800BF30371C
:1031C000BD4680BD000001400038024000080040BC
:1031D000000C02400004014080B58CB000AF786064
:1031E00007F11C0300221A605A609A60DA601A61C3
:1031F0007B681B68B3F1804F4BD10023BB613F4B11
:103200001B6C3E4A43F0010313643C4B1B6C03F000
:103210000103BB61BB6900237B61384B1B6B374AE1
:1032200043F001031363354B1B6B03F001037B6118
:103230007B6900233B61314B1B6B304A43F0020337
:1032400013632E4B1B6B03F002033B613B694FF48E
:103250000043FB6102233B6200237B620023BB62CD
:103260000123FB6207F11C031946254801F068FBA6
:103270000823FB6102233B6200237B620023BB62C5
:103280000123FB6207F11C0319461E4801F058FB9D
:1032900030E07B681B681C4A93422BD10023FB6003
:1032A000164B1B6C154A43F002031364134B1B6C43
:1032B00003F00203FB60FB680023BB600F4B1B6B3A
:1032C0000E4A43F0010313630C4B1B6B03F0010325
:1032D000BB60BB68C023FB6102233B6200237B62AF
:1032E0000023BB620223FB6207F11C03194604485A
:1032F00001F026FB00BF3037BD4680BD00380240DC
:1033000000000240000402400004004080B58AB082
:1033100000AF786007F1140300221A605A609A60C7
:10332000DA601A617B681B68244A93421FD100232C
:103330003B61234B1B6B224A43F010031363204B6A
:103340001B6B03F010033B613B694FF480437B61CF
:103350000223BB610023FB6103233B6201237B62E9
:1033600007F114031946174801F0EAFA22E07B68D6
:103370001B68154A93421DD10023FB60104B1B6B49
:103380000F4A43F0040313630D4B1B6B03F004035C
:10339000FB60FB68C0237B610223BB610023FB61F0
:1033A00000233B6203237B6207F11403194607489D
:1033B00001F0C6FA00BF2837BD4680BD00000140BD
:1033C00000380240001002400004014000080240A2
:1033D00080B58AB000AF786007F1140300221A604C
:1033E0005A609A60DA601A617B681B681D4A9342D2
:1033F00034D100233B611C4B1B6C1B4A43F48023DC
:103400001364194B1B6C03F480233B613B6900235D
:10341000FB60154B1B6B144A43F004031363124B00
:103420001B6B03F00403FB60FB684FF440637B619C
:103430000223BB610023FB6103233B6207237B6202
:1034400007F114031946094801F07AFA0022052110
:10345000272000F0CFFE272000F0E8FE00BF28372D
:10346000BD4680BD004800400038024000080240D0
:1034700080B58CB000AF78600023FB620023BB6294
:1034800000227968362000F0B5FE362000F0CEFE2E
:103490000023FB601F4B1B6C1E4A43F01003136498
:1034A0001C4B1B6C03F01003FB60FB6807F1100260
:1034B00007F114031146184603F04EF803F024F800
:1034C00003465B00FB62FB6A134AA2FB03239B0CCF
:1034D000013BBB62114B124A1A60104B40F2E732BB
:1034E000DA600E4ABB6A53600C4B00221A610B4B28
:1034F00000229A60094803F061F80346002B04D1CA
:10350000064803F0ABF8034600E0012318463037C5
:10351000BD4680BD0038024083DE1B43BC05002051
:103520000010004080B400AFFEE780B400AFFEE7BB
:1035300080B400AFFEE780B400AFFEE780B400AF18
:10354000FEE780B400AF00BFBD465DF8047B704766
:1035500080B500AF024803F07DFC00BF80BD00BF16
:103560000803002080B500AF024803F073FC00BFE1
:1035700080BD00BFE003002080B500AF024804F02A
:1035800025FE00BF80BD00BF7004002080B500AFE5
:10359000024803F05FFC00BF80BD00BFBC050020F7
:1035A00080B500AF024800F08FFF00BF80BD00BFB4
:1035B0005402002080B400AF01231846BD465DF8D8
:1035C000047B704780B582B000AF7860396008F046
:1035D000CFFD034616221A604FF0FF331846083716
:1035E000BD4680BD80B582B000AF78604FF0FF313E
:1035F0007868FFF7E7FFFEE780B586B000AFF860B8
:10360000B9607A6000237B610AE0AFF30080014675
:10361000BB685A1CBA60CAB21A707B6901337B61FD
:103620007A697B689A42F0DB7B6818461837BD469A
:1036300080BD80B586B000AFF860B9607A600023C5
:103640007B6109E0BB685A1CBA601B781846AFF36F
:1036500000807B6901337B617A697B689A42F1DB88
:103660007B6818461837BD4680BD80B483B000AF74
:1036700078604FF0FF3318460C37BD465DF8047B89
:10368000704780B483B000AF786039603B684FF416
:1036900000525A60002318460C37BD465DF8047B83
:1036A000704780B483B000AF7860012318460C37B0
:1036B000BD465DF8047B704780B485B000AFF8600C
:1036C000B9607A60002318461437BD465DF8047B64
:1036D0007047000080B586B000AF7860144A154B83
:1036E000D31A7B617B693B61134B1B68002B02D1B2
:1036F000114B124A1A60104B1A687B6813443A69DE
:103700009A4207D208F034FD03460C221A604FF0AB
:10371000FF3309E0084B1B68FB60074B1A687B68A6
:103720001344054A1360FB6818461837BD4680BD30
:103730000000022000040000040600207053002056
:1037400080B400AF064BD3F88830054A43F47003C9
:10375000C2F8883000BFBD465DF8047B704700BFEB
:1037600000ED00E0DFF834D00D480E490E4A00238A
:1037700002E0D458C4500433C4188C42F9D30B4A25
:103780000B4C002301E013600432A242FBD3FFF78D
:10379000D7FF08F0F3FCFEF7A3F970470000022002
:1037A00000000020F0010020AC030108F00100201F
:1037B0006C530020FEE7000080B500AF0E4B1B6885
:1037C0000D4A43F4007313600B4B1B680A4A43F421
:1037D00080631360084B1B68074A43F480731360CF
:1037E000032000F0FCFC0F20FFF742FEFFF768FB10
:1037F0000023184680BD00BF003C024080B400AFEB
:10380000064B1B781A46064B1B681344044A136088
:1038100000BFBD465DF8047B704700BF1800002064
:103820000806002080B400AF034B1B681846BD4655
:103830005DF8047B704700BF0806002080B584B0A7
:1038400000AF7860FFF7EEFFB8607B68FB60FB6855
:10385000B3F1FF3F05D00A4B1B781A46FB681344AF
:10386000FB6000BFFFF7DEFF0246BB68D31AFA68B1
:103870009A42F7D800BF00BF1037BD4680BD00BFD9
:103880001800002080B584B000AF78600023FB737F
:103890007B68002B01D1012333E07B681B6C002B7C
:1038A00009D17868FFF738FB7B6800225A647B688F
:1038B000002283F83C207B681B6C03F01003002B74
:1038C00018D17B681B6C23F4885323F0020343F068
:1038D00002027B681A64786800F0D8FA7B680022DC
:1038E0005A647B681B6C23F0030343F001027B687E
:1038F0001A6401E00123FB737B68002283F83C20FB
:10390000FB7B18461037BD4680BD000080B485B0F3
:1039100000AF78600023BB607B6893F83C30012BDC
:1039200001D10223B2E07B68012283F83C207B684E
:103930001B689B6803F00103012B18D07B681B6890
:103940009A687B681B6842F001029A60524B1B68C0
:10395000524AA2FB03239A0C13465B001344BB603C
:1039600002E0BB68013BBB60BB68002BF9D17B6800
:103970001B689B6803F00103012B7AD17B681B6CE9
:1039800023F4E06323F0010343F480727B681A643C
:103990007B681B685B6803F48063002B07D07B683F
:1039A0001B6C23F4405343F480527B681A647B6899
:1039B0001B6C03F48053B3F5805F06D17B685B6CAE
:1039C00023F006027B685A6402E07B6800225A6496
:1039D0007B68002283F83C20314BFB607B681B68CE
:1039E0006FF022021A60FB685B6803F01F03002B74
:1039F0002AD17B681B682B4A934215D07B681B68D1
:103A0000294A934205D1264B5B6803F01F03002B24
:103A10000AD07B681B68254A934236D1204B5B68ED
:103A200003F01003002B30D17B681B689B6803F008
:103A30004053002B29D17B681B689A687B681B6800
:103A400042F080429A6020E07B681B68154A9342EE
:103A50001BD17B681B689B6803F04053002B14D17B
:103A60007B681B689A687B681B6842F080429A609A
:103A70000BE07B681B6C43F010027B681A647B6868
:103A80005B6C43F001027B685A64002318461437CC
:103A9000BD465DF8047B70471000002083DE1B43A9
:103AA000002301400020014000210140002201408C
:103AB00080B483B000AF78607B6893F83C30012B12
:103AC00001D1022321E07B68012283F83C207B683E
:103AD0001B689A687B681B6822F001029A607B6809
:103AE0001B689B6803F00103002B09D17B681B6CEA
:103AF00023F4885323F0010343F001027B681A6426
:103B00007B68002283F83C20002318460C37BD4612
:103B10005DF8047B704780B584B000AF7860396091
:103B20000023FB607B681B689B6803F48063B3F52C
:103B3000806F13D17B681B689B6803F48073B3F5B7
:103B4000807F0BD17B681B6C43F020027B681A647A
:103B50007B68002283F83C20012363E0FFF762FECC
:103B6000F86021E03B68B3F1FF3F1DD03B68002BBC
:103B700007D0FFF757FE0246FB68D31A3A689A420D
:103B800012D27B681B681B6803F00203022B0BD068
:103B90007B681B6C43F004027B681A647B6800221C
:103BA00083F83C2003233DE07B681B681B6803F01F
:103BB0000203022BD6D17B681B686FF012021A60D9
:103BC0007B681B6C43F400727B681A647B681B681B
:103BD0009B6803F04053002B23D17B681B7E002B96
:103BE0001FD17B681B68DB6A03F47003002B06D0CF
:103BF0007B681B689B6803F48063002B11D17B6892
:103C00001B6C23F480727B681A647B681B6C03F462
:103C10008053002B05D17B681B6C43F001027B684D
:103C20001A64002318461037BD4680BD80B483B0A7
:103C300000AF78607B681B68DB6C18460C37BD46AC
:103C40005DF8047B7047000080B485B000AF7860F9
:103C500039600023BB607B6893F83C30012B01D1B5
:103C6000022305E17B68012283F83C203B681B6846
:103C7000092B25D97B681B68D9683B681B689BB2F8
:103C80001A4613465B0013441E3B072202FA03F355
:103C9000DA437B681B680A40DA607B681B68D96876
:103CA0003B689A683B681B689BB2184603465B00FA
:103CB00003441E3B9A407B681B680A43DA6022E09B
:103CC0007B681B6819693B681B689BB21A461346E0
:103CD0005B001344072202FA03F3DA437B681B6894
:103CE0000A401A617B681B6819693B689A683B68DF
:103CF0001B689BB2184603465B0003449A407B68EE
:103D00001B680A431A613B685B68062B24D87B68F2
:103D10001B68596B3B685A6813469B001344053B6C
:103D20001F2202FA03F3DA437B681B680A405A63D6
:103D30007B681B68596B3B681B689BB218463B68E5
:103D40005A6813469B001344053B00FA03F27B6854
:103D50001B680A435A634CE03B685B680C2B24D811
:103D60007B681B68196B3B685A6813469B001344B9
:103D7000233B1F2202FA03F3DA437B681B680A40E5
:103D80001A637B681B68196B3B681B689BB21846FB
:103D90003B685A6813469B001344233B00FA03F226
:103DA0007B681B680A431A6323E07B681B68D96A37
:103DB0003B685A6813469B001344413B1F2202FA9A
:103DC00003F3DA437B681B680A40DA627B681B688E
:103DD000D96A3B681B689BB218463B685A68134611
:103DE0009B001344413B00FA03F27B681B680A43C3
:103DF000DA62224BFB607B681B68214A934209D13F
:103E00003B681B68122B05D1FB685B6843F480029A
:103E1000FB685A607B681B68194A934223D13B6850
:103E20001B68102B03D03B681B68112B1BD1FB6850
:103E30005B6843F40002FB685A603B681B68102B08
:103E400011D1104B1B68104AA2FB03239A0C134696
:103E50009B0013445B00BB6002E0BB68013BBB609E
:103E6000BB68002BF9D17B68002283F83C2000233B
:103E700018461437BD465DF8047B704700230140A7
:103E8000002001401000002083DE1B4380B485B079
:103E900000AF7860794BFB60FB685B6823F44032CD
:103EA000FB685A60FB685A687B685B681A43FB686A
:103EB0005A607B681B685A687B681B6822F48072B2
:103EC0005A607B681B6859687B681B691A027B68AB
:103ED0001B680A435A607B681B685A687B681B68CA
:103EE00022F040725A607B681B6859687B689A6848
:103EF0007B681B680A435A607B681B689A687B680A
:103F00001B6822F400629A607B681B6899687B6872
:103F1000DA687B681B680A439A607B689B6A584A28
:103F2000934222D07B681B689A687B681B6822F0EA
:103F300070629A607B681B6899687B689A6A7B6884
:103F40001B680A439A607B681B689A687B681B68D9
:103F500022F040529A607B681B6899687B68DA6A35
:103F60007B681B680A439A600FE07B681B689A684D
:103F70007B681B6822F070629A607B681B689A6895
:103F80007B681B6822F040529A607B681B689A68C5
:103F90007B681B6822F002029A607B681B68996844
:103FA0007B681B7E5A007B681B680A439A607B68AB
:103FB00093F82030002B1BD07B681B685A687B6805
:103FC0001B6842F400625A607B681B685A687B6811
:103FD0001B6822F460425A607B681B6859687B68E2
:103FE0005B6A013B5A037B681B680A435A6007E01F
:103FF0007B681B685A687B681B6822F400625A6001
:104000007B681B68DA6A7B681B6822F47002DA62DC
:104010007B681B68D96A7B68DB69013B1A057B6892
:104020001B680A43DA627B681B689A687B681B68B6
:1040300022F400729A607B681B6899687B6893F829
:1040400030305A027B681B680A439A607B681B68A1
:104050009A687B681B6822F480629A607B681B68A0
:1040600099687B685B699A027B681B680A439A605F
:1040700000BF1437BD465DF8047B70470023014044
:104080000100000F80B485B000AF78607B6803F05A
:104090000703FB600C4BDB68BB60BA684FF6FF039D
:1040A0001340BB60FB681A02BB68134343F0BF6355
:1040B00043F40033BB60044ABB68D36000BF1437CD
:1040C000BD465DF8047B704700ED00E080B400AFB2
:1040D000044BDB681B0A03F007031846BD465DF876
:1040E000047B704700ED00E080B483B000AF03466E
:1040F000FB7197F90730002B0BDBFB7903F01F02F4
:10410000074997F907305B09012000FA02F241F8EC
:10411000232000BF0C37BD465DF8047B704700BF0D
:1041200000E100E080B483B000AF03463960FB716A
:1041300097F90730002B0ADB3B68DAB20C4997F994
:1041400007301201D2B20B4483F800230AE03B6827
:10415000DAB20849FB7903F00F03043B1201D2B233
:104160000B441A7600BF0C37BD465DF8047B7047E0
:1041700000E100E000ED00E080B489B000AFF8603D
:10418000B9607A60FB6803F00703FB61FB69C3F168
:104190000703042B28BF0423BB61FB690433062BF0
:1041A00002D9FB69033B00E000237B614FF0FF3243
:1041B000BB6902FA03F3DA43BB681A407B699A4091
:1041C0004FF0FF317B6901FA03F3D9437B680B4061
:1041D000134318462437BD465DF8047B704780B50D
:1041E00082B000AF78607868FFF74CFF00BF0837F7
:1041F000BD4680BD80B586B000AF0346B9607A6029
:10420000FB7300237B61FFF761FF78617A68B9680F
:104210007869FFF7B1FF024697F90F30114618464B
:10422000FFF780FF00BF1837BD4680BD80B582B064
:1042300000AF0346FB7197F907301846FFF754FFAC
:1042400000BF0837BD4680BD80B586B000AF78603E
:1042500000237B61FFF7E6FA38617B68002B01D110
:10426000012399E07B68022283F835207B680022D5
:1042700083F834207B681B681A687B681B6822F00F
:1042800001021A600FE0FFF7CDFA02463B69D31A2C
:10429000052B08D97B6820225A657B68032283F8A6
:1042A0003520032378E07B681B681B6803F001035B
:1042B000002BE8D17B681B681B687B617A69384BEF
:1042C00013407B617B685A687B689B681A437B68F4
:1042D000DB681A437B681B691A437B685B691A4376
:1042E0007B689B691A437B68DB691A437B681B6A9E
:1042F00013437A6913437B617B685B6A042B07D1A4
:104300007B68DA6A7B681B6B13437A6913437B61B2
:104310007B681B687A691A607B681B685B697B61D4
:104320007B6923F007037B617B685B6A7A691343CF
:104330007B617B685B6A042B17D17B689B6A7A6917
:1043400013437B617B68DB6A002B0ED0786800F03A
:104350007BFA0346002B08D07B6840225A657B68B5
:10436000012283F83520012316E07B681B687A69F7
:104370005A61786800F032FA0346FB607B68DB6DB7
:104380003F229A40FB689A607B6800225A657B68EE
:10439000012283F83520002318461837BD4680BD1A
:1043A0003F8010F080B584B000AF78607B689B6D73
:1043B000FB60FFF737FAB8607B6893F83530DBB203
:1043C000022B08D07B6880225A657B68002283F824
:1043D0003420012352E07B681B681A687B681B68E5
:1043E00022F016021A607B681B685A697B681B689A
:1043F00022F080025A617B681B6C002B03D17B6822
:104400009B6C002B07D07B681B681A687B681B6855
:1044100022F008021A607B681B681A687B681B68B8
:1044200022F001021A6013E0FFF7FCF90246BB68B4
:10443000D31A052B0CD97B6820225A657B6803228E
:1044400083F835207B68002283F83420032315E0AD
:104450007B681B681B6803F00103002BE4D17B68B9
:10446000DB6D3F229A40FB689A607B68012283F8EB
:1044700035207B68002283F834200023184610374B
:10448000BD4680BD80B483B000AF78607B6893F890
:104490003530DBB2022B04D07B6880225A650123C1
:1044A0000CE07B68052283F835207B681B681A685E
:1044B0007B681B6822F001021A60002318460C3743
:1044C000BD465DF8047B704780B586B000AF78606C
:1044D0000023BB608E4B1B688E4AA2FB03239B0A02
:1044E0007B617B689B6D3B613B691B68FB607B6804
:1044F000DB6D08229A40FB681340002B1AD07B68C2
:104500001B681B6803F00403002B13D07B681B6837
:104510001A687B681B6822F004021A607B68DB6DF6
:1045200008229A403B699A607B685B6D43F0010208
:104530007B685A657B68DB6D01229A40FB681340FB
:10454000002B12D07B681B685B6903F08003002B93
:104550000BD07B68DB6D01229A403B699A607B68D7
:104560005B6D43F002027B685A657B68DB6D042259
:104570009A40FB681340002B12D07B681B681B68B5
:1045800003F00203002B0BD07B68DB6D04229A4002
:104590003B699A607B685B6D43F004027B685A65F7
:1045A0007B68DB6D10229A40FB681340002B43D0E0
:1045B0007B681B681B6803F00803002B3CD07B68FA
:1045C000DB6D10229A403B699A607B681B681B6810
:1045D00003F48023002B18D07B681B681B6803F44E
:1045E0000023002B08D17B681B6C002B24D07B6838
:1045F0001B6C786898471FE07B689B6C002B1BD076
:104600007B689B6C7868984716E07B681B681B6822
:1046100003F48073002B07D17B681B681A687B68E2
:104620001B6822F008021A607B681B6C002B03D009
:104630007B681B6C786898477B68DB6D20229A400A
:10464000FB681340002B00F08F807B681B681B68A1
:1046500003F01003002B00F087807B68DB6D2022C5
:104660009A403B699A607B6893F83530DBB2052B42
:1046700036D17B681B681A687B681B6822F01602BB
:104680001A607B681B685A697B681B6822F080028D
:104690005A617B681B6C002B03D17B689B6C002BE1
:1046A00007D07B681B681A687B681B6822F00802C9
:1046B0001A607B68DB6D3F229A403B699A607B6899
:1046C000012283F835207B68002283F834207B6840
:1046D0001B6D002B7ED07B681B6D7868984779E056
:1046E0007B681B681B6803F48023002B1DD07B684C
:1046F0001B681B6803F40023002B0DD17B685B6CE7
:10470000002B31D07B685B6C786898472CE000BF49
:1047100010000020B5814E1B7B68DB6B002B23D083
:104720007B68DB6B786898471EE07B681B681B68BA
:1047300003F48073002B0FD17B681B681A687B68B9
:104740001B6822F010021A607B68012283F8352072
:104750007B68002283F834207B68DB6B002B03D05E
:104760007B68DB6B786898477B685B6D002B32D089
:104770007B685B6D03F00103002B22D07B68052270
:1047800083F835207B681B681A687B681B6822F0F9
:1047900001021A60BB680133BB607A699A4207D391
:1047A0007B681B681B6803F00103002BF2D100E05B
:1047B00000BF7B68012283F835207B68002283F8E4
:1047C00034207B68DB6C002B05D07B68DB6C786861
:1047D000984700E000BF1837BD4680BD80B485B063
:1047E00000AF78607B681B68DBB2103B144AA2FB09
:1047F00003231B09FB60134AFB6813441B781A460A
:104800007B68DA65FB68032B09D97B681B6823F496
:104810007F7323F003031A1D7B689A6507E07B68AA
:104820001B6823F47F7323F003037A6893657B6826
:104830009B6D18461437BD465DF8047B704700BF7A
:10484000ABAAAAAA58F5000880B485B000AF78607A
:104850000023FB737B689B6ABB607B689B69002BB2
:104860001FD1BB68032B56D801A252F823F000BF1A
:10487000814800089348000881480008174900084B
:104880007B68DB6A03F08073002B46D00123FB7347
:1048900043E07B68DB6AB3F1C07F40D10123FB7347
:1048A0003DE07B689B69B3F5005F21D1BB68032BBA
:1048B00037D801A252F823F0C9480008CF480008B1
:1048C000C9480008E14800080123FB7330E07B6819
:1048D000DB6A03F08073002B25D00123FB7322E0F9
:1048E0007B68DB6AB3F1C07F1FD10123FB731CE03F
:1048F000BB68022B03D9BB68032B03D018E001234C
:10490000FB7315E07B68DB6A03F08073002B0ED02D
:104910000123FB730BE000BF0AE000BF08E000BF0B
:1049200006E000BF04E000BF02E000BF00E000BFFF
:10493000FB7B18461437BD465DF8047B704700BF0B
:1049400080B489B000AF7860396000237B610023B8
:104950003B610023BB610023FB616BE10122FB692A
:1049600002FA03F37B613B681B687A6913403B6181
:104970003A697B699A4240F05A813B685B6803F070
:104980000303012B05D03B685B6803F00303022B94
:1049900030D17B689B68BB61FB695B00032202FA34
:1049A00003F3DB43BA691340BB613B68DA68FB6918
:1049B0005B0002FA03F3BA691343BB617B68BA690F
:1049C0009A607B685B68BB610122FB6902FA03F3B2
:1049D000DB43BA691340BB613B685B681B0903F0AA
:1049E0000102FB6902FA03F3BA691343BB617B68F6
:1049F000BA695A603B685B6803F00303032B17D066
:104A00007B68DB68BB61FB695B00032202FA03F38E
:104A1000DB43BA691340BB613B689A68FB695B0082
:104A200002FA03F3BA691343BB617B68BA69DA60BF
:104A30003B685B6803F00303022B23D1FB69DA08B0
:104A40007B68083253F82230BB61FB6903F007032F
:104A50009B000F2202FA03F3DB43BA691340BB61E8
:104A60003B681A69FB6903F007039B0002FA03F332
:104A7000BA691343BB61FB69DA087B680832B9691C
:104A800043F822107B681B68BB61FB695B00032253
:104A900002FA03F3DB43BA691340BB613B685B680E
:104AA00003F00302FB695B0002FA03F3BA691343E4
:104AB000BB617B68BA691A603B685B6803F440338A
:104AC000002B00F0B4800023FB60604B5B6C5F4AFE
:104AD00043F4804353645D4B5B6C03F48043FB60A1
:104AE000FB685B4AFB699B08023352F82330BB61C9
:104AF000FB6903F003039B000F2202FA03F3DB437D
:104B0000BA691340BB617B68524A93422BD07B68E1
:104B1000514A934225D07B68504A93421FD07B680C
:104B20004F4A934219D07B684E4A934213D07B6818
:104B30004D4A93420DD07B684C4A934207D07B6824
:104B40004B4A934201D107230EE008230CE00623D1
:104B50000AE0052308E0042306E0032304E002231F
:104B600002E0012300E00023FA6902F00302920050
:104B70009340BA691343BB613549FB699B08023313
:104B8000BA6941F823203B4B1B68BB613B69DB439F
:104B9000BA691340BB613B685B6803F48033002B48
:104BA00003D0BA693B691343BB61324ABB691360E6
:104BB000304B5B68BB613B69DB43BA691340BB6147
:104BC0003B685B6803F40033002B03D0BA693B6990
:104BD0001343BB61274ABB695360264B9B68BB618B
:104BE0003B69DB43BA691340BB613B685B6803F414
:104BF0008013002B03D0BA693B691343BB611D4A84
:104C0000BB6993601B4BDB68BB613B69DB43BA69E3
:104C10001340BB613B685B6803F40013002B03D0B7
:104C2000BA693B691343BB61124ABB69D360FB6934
:104C30000133FB61FB690F2B7FF690AE00BF00BF15
:104C40002437BD465DF8047B704700BF0038024042
:104C50000038014000000240000402400008024009
:104C6000000C0240001002400014024000180240F4
:104C7000001C0240003C014080B483B000AF78606B
:104C80000B467B8013467B707B78002B03D07A88A1
:104C90007B689A6103E07B881A047B689A6100BF95
:104CA0000C37BD465DF8047B7047000080B584B0CA
:104CB00000AF78607B68002B01D101232BE17B687A
:104CC00093F83D30DBB2002B06D17B68002283F8DD
:104CD0003C207868FEF7B4F97B68242283F83D20F5
:104CE0007B681B681A687B681B6822F001021A60E7
:104CF0007B681B681A687B681B6842F400421A6074
:104D00007B681B681A687B681B6822F400421A6083
:104D100001F0FAFBF8607B685B68814A934207D830
:104D2000FB68804A934294BF01230023DBB206E074
:104D3000FB687D4A934294BF01230023DBB2002B22
:104D400001D00123E7E0FB68784AA2FB03239B0C18
:104D5000BB607B681B685B6823F03F017B681B6856
:104D6000BA680A435A607B681B681B6A23F03F01DC
:104D70007B685B686A4A934202D8BB68013309E0EA
:104D8000BB684FF4967202FB03F3694AA2FB03234C
:104D90009B0901337A6812680B4313627B681B68B6
:104DA000DB6923F44F4222F0FF027B685B685C49B9
:104DB0008B4219D8FB68591E7B685B685B00B1FBAE
:104DC000F3F3591C40F6FC730B40002B0AD0FB6830
:104DD000591E7B685B685B00B1FBF3F30133C3F3DF
:104DE0000B0351E004234FE07B689B68002B11D13B
:104DF000FB68581E7B6859680B465B000B44B0FB90
:104E0000F3F30133C3F30B03002B0CBF0123002387
:104E1000DBB212E0FB68581E7B6859680B469B00AA
:104E20000B4499000B44B0FBF3F30133C3F30B03C2
:104E3000002B0CBF01230023DBB2002B01D0012388
:104E400022E07B689B68002B0ED1FB68581E7B68B4
:104E500059680B465B000B44B0FBF3F30133C3F31B
:104E60000B0343F400430FE0FB68581E7B6859684E
:104E70000B469B000B4499000B44B0FBF3F301334A
:104E8000C3F30B0343F44043796809681343CB61D0
:104E90007B681B681B6823F0C0017B68DA697B684C
:104EA0001B6A1A437B681B680A431A607B681B688D
:104EB0009B6823F4034323F0FF037A6811697A683F
:104EC000D26811437A6812680B4393607B681B6851
:104ED000DB6823F0FF017B685A697B689B691A4392
:104EE0007B681B680A43DA607B681B681A687B680A
:104EF0001B6842F001021A607B6800221A647B681A
:104F0000202283F83D207B6800221A637B68002200
:104F100083F83E20002318461037BD4680BD00BFF1
:104F2000A08601007F841E00FF083D0083DE1B4336
:104F3000D34D621080B588B002AFF8607A601A462F
:104F40000B467B8113463B81FEF76CFC7861FB6866
:104F500093F83D30DBB2202B40F0E0807B6900937A
:104F6000192301227049F86800F058FC0346002B11
:104F700001D00223D3E0FB6893F83C30012B01D130
:104F80000223CCE0FB68012283F83C20FB681B680D
:104F90001B6803F00103012B07D0FB681B681A682C
:104FA000FB681B6842F001021A60FB681B681A6804
:104FB000FB681B6822F400621A60FB68212283F8F8
:104FC0003D20FB68102283F83E20FB6800221A6413
:104FD000FB687A685A62FB683A895A85FB685B8D80
:104FE0009AB2FB681A85FB68504ADA6279897B6954
:104FF0003A6AF86800F0C2FA0346002B01D0012398
:105000008DE000233B61FB681B685B693B61FB68CB
:105010001B689B693B613B6966E07A69396AF8689D
:1050200000F0D2FC0346002B0DD0FB681B6C042B58
:1050300007D1FB681B681A68FB681B6842F40072A2
:105040001A6001236BE0FB685B6A1A78FB681B68D7
:105050001A61FB685B6A5A1CFB685A62FB685B8DCD
:105060009BB2013B9AB2FB685A85FB681B8D013BE2
:105070009AB2FB681A85FB681B685B6903F004033E
:10508000042B1BD1FB681B8D002B17D0FB685B6AC0
:105090001A78FB681B681A61FB685B6A5A1CFB681C
:1050A0005A62FB685B8D9BB2013B9AB2FB685A85E2
:1050B000FB681B8D013B9AB2FB681A857A69396AD5
:1050C000F86800F0C2FC0346002B0DD0FB681B6C97
:1050D000042B07D1FB681B681A68FB681B6842F445
:1050E00000721A6001231AE0FB681B8D002B94D11B
:1050F000FB681B681A68FB681B6842F400721A6040
:10510000FB68202283F83D20FB68002283F83E20C4
:10511000FB68002283F83C20002300E002231846AD
:105120001837BD4680BD00BF020010000000FFFF21
:1051300080B58CB002AFF8607A601A460B467B816E
:1051400013463B81FEF76EFB7862FB6893F83D30B7
:10515000DBB2202B40F00B827B6A009319230122E3
:105160007C49F86800F05AFB0346002B01D002236B
:10517000FEE1FB6893F83C30012B01D10223F7E1FB
:10518000FB68012283F83C20FB681B681B6803F066
:105190000103012B07D0FB681B681A68FB681B68BA
:1051A00042F001021A60FB681B681A68FB681B6802
:1051B00022F400621A60FB68222283F83D20FB681B
:1051C000102283F83E20FB6800221A64FB687A688C
:1051D0005A62FB683A895A85FB685B8D9AB2FB6814
:1051E0001A85FB685C4ADA6279897B6A3A6BF868EF
:1051F00000F046FA0346002B01D00123B8E1FB681A
:105200001B8D002B13D100233B62FB681B685B697D
:105210003B62FB681B689B693B623B6AFB681B68DF
:105220001A68FB681B6842F400721A608CE1FB6824
:105230001B8D012B1BD1FB681B681A68FB681B6860
:1052400022F480621A600023FB61FB681B685B69C3
:10525000FB61FB681B689B69FB61FB69FB681B6862
:105260001A68FB681B6842F400721A606CE1FB6804
:105270001B8D022B1BD1FB681B681A68FB681B681F
:1052800022F480621A60FB681B681A68FB681B685E
:1052900042F400621A600023BB61FB681B685B6913
:1052A000BB61FB681B689B69BB61BB694CE1FB6828
:1052B0001B681A68FB681B6842F480621A6000234E
:1052C0007B61FB681B685B697B61FB681B689B6992
:1052D0007B617B6938E1FB681B8D032B00F2F18059
:1052E000FB681B8D012B23D17A6A396BF86800F0BB
:1052F000EDFB0346002B01D0012339E1FB681B685D
:105300001A69FB685B6AD2B21A70FB685B6A5A1C46
:10531000FB685A62FB681B8D013B9AB2FB681A85D9
:10532000FB685B8D9BB2013B9AB2FB685A850BE12F
:10533000FB681B8D022B4ED17B6A00933B6B0022D6
:105340000649F86800F06AFA0346002B08D00123EA
:105350000EE100BF020010000000FFFF040001008A
:10536000FB681B681A68FB681B6842F400721A60CD
:10537000FB681B681A69FB685B6AD2B21A70FB682B
:105380005B6A5A1CFB685A62FB681B8D013B9AB230
:10539000FB681A85FB685B8D9BB2013B9AB2FB6888
:1053A0005A85FB681B681A69FB685B6AD2B21A707F
:1053B000FB685B6A5A1CFB685A62FB681B8D013BE9
:1053C0009AB2FB681A85FB685B8D9BB2013B9AB26F
:1053D000FB685A85B8E07B6A00933B6B0022664904
:1053E000F86800F01BFA0346002B01D00123BFE050
:1053F000FB681B681A68FB681B6822F480621A60ED
:10540000FB681B681A69FB685B6AD2B21A70FB689A
:105410005B6A5A1CFB685A62FB681B8D013B9AB29F
:10542000FB681A85FB685B8D9BB2013B9AB2FB68F7
:105430005A857B6A00933B6B00224F49F86800F065
:10544000EDF90346002B01D0012391E0FB681B68B6
:105450001A68FB681B6842F400721A60FB681B68DC
:105460001A69FB685B6AD2B21A70FB685B6A5A1CE5
:10547000FB685A62FB681B8D013B9AB2FB681A8578
:10548000FB685B8D9BB2013B9AB2FB685A85FB6857
:105490001B681A69FB685B6AD2B21A70FB685B6AA8
:1054A0005A1CFB685A62FB681B8D013B9AB2FB6871
:1054B0001A85FB685B8D9BB2013B9AB2FB685A85EB
:1054C00042E07A6A396BF86800F000FB0346002B73
:1054D00001D001234CE0FB681B681A69FB685B6A1A
:1054E000D2B21A70FB685B6A5A1CFB685A62FB688E
:1054F0001B8D013B9AB2FB681A85FB685B8D9BB2E2
:10550000013B9AB2FB685A85FB681B685B6903F034
:105510000403042B18D1FB681B681A69FB685B6ADB
:10552000D2B21A70FB685B6A5A1CFB685A62FB684D
:105530001B8D013B9AB2FB681A85FB685B8D9BB2A1
:10554000013B9AB2FB685A85FB681B8D002B7FF4E8
:10555000C2AEFB68202283F83D20FB68002283F85E
:105560003E20FB68002283F83C20002300E0022359
:1055700018462837BD4680BD0400010080B588B0BC
:1055800002AFF8607A603B600B467B81FB68DB6AA8
:105590007B617B69082B06D07B69012B03D07B697B
:1055A00013F5803F08D1FB681B681A68FB681B680D
:1055B00042F480721A600BE0FB681B6B122B07D160
:1055C000FB681B681A68FB681B6842F480721A60EB
:1055D0003B6800937B6800224FF00111F86800F0EF
:1055E0001DF90346002B0DD0FB681B681B6803F4F4
:1055F0008073B3F5807F03D1FB684FF400721A64A7
:10560000032335E0FB681B69B3F5804F08D17B8924
:10561000DBB21A46FB681B6802F0FE021A611BE04F
:105620007B89DB11DBB203F00603DBB263F00F030F
:10563000DAB2FB681B681A613B687A680E49F86841
:1056400000F043F90346002B01D0012310E07B89D1
:10565000DAB2FB681B681A613B687A680749F86828
:1056600000F033F90346002B01D0012300E00023B2
:1056700018461837BD4680BD080001000200010031
:1056800080B588B002AFF8607A603B600B467B81E2
:10569000FB68DB6A7B61FB681B681A68FB681B6838
:1056A00042F480621A607B69082B06D07B69012B6B
:1056B00003D07B6913F5803F08D1FB681B681A682B
:1056C000FB681B6842F480721A600BE0FB681B6B7E
:1056D000112B07D1FB681B681A68FB681B6842F432
:1056E00080721A603B6800937B6800224FF00111C2
:1056F000F86800F093F80346002B0DD0FB681B6898
:105700001B6803F48073B3F5807F03D1FB684FF40B
:1057100000721A64032379E0FB681B69B3F5804FBC
:1057200008D17B89DBB243F00103DAB2FB681B6866
:105730001A615FE07B89DB11DBB203F00603DBB2A9
:1057400063F00F03DAB2FB681B681A613B687A6882
:105750003049F86800F0B9F80346002B01D0012366
:1057600054E07B89DAB2FB681B681A613B687A688F
:105770002949F86800F0A9F80346002B01D001235D
:1057800044E000233B61FB681B685B693B61FB688D
:105790001B689B693B613B69FB681B681A68FB6877
:1057A0001B6842F480721A603B6800937B68002299
:1057B0004FF00111F86800F031F80346002B0DD0CE
:1057C000FB681B681B6803F48073B3F5807F03D10B
:1057D000FB684FF400721A64032317E07B89DB1126
:1057E000DBB203F00603DBB263F00E03DAB2FB6850
:1057F0001B681A613B687A680749F86800F065F829
:105800000346002B01D0012300E00023184618377F
:10581000BD4680BD080001000200010080B584B0D3
:1058200000AFF860B9603B601346FB7125E03B6850
:10583000B3F1FF3F21D0FDF7F5FF0246BB69D31A54
:105840003A689A4202D33B68002B16D1FB680022CB
:105850001A63FB68202283F83D20FB68002283F84E
:105860003E20FB681B6C43F02002FB681A64FB6857
:10587000002283F83C20012323E0BB681B0CDBB231
:10588000012B0DD1FB681B685B69DA43BB681340D1
:105890009BB2002B0CBF01230023DBB21A460CE0A5
:1058A000FB681B689B69DA43BB6813409BB2002B03
:1058B0000CBF01230023DBB21A46FB799A42B6D013
:1058C000002318461037BD4680BD80B584B000AFB8
:1058D000F860B9607A603B6051E0FB681B685B6907
:1058E00003F48063B3F5806F23D1FB681B681A68EB
:1058F000FB681B6842F400721A60FB681B686FF457
:1059000080625A61FB6800221A63FB68202283F8D8
:105910003D20FB68002283F83E20FB681B6C43F0AF
:105920000402FB681A64FB68002283F83C20012310
:1059300046E07B68B3F1FF3F21D0FDF773FF0246DD
:105940003B68D31A7A689A4202D37B68002B16D13F
:10595000FB6800221A63FB68202283F83D20FB6865
:10596000002283F83E20FB681B6C43F02002FB689A
:105970001A64FB68002283F83C20012320E0BB6806
:105980001B0CDBB2012B0CD1FB681B685B69DA4393
:10599000BB6813409BB2002B14BF01230023DBB272
:1059A0000BE0FB681B689B69DA43BB6813409BB242
:1059B000002B14BF01230023DBB2002B8DD1002369
:1059C00018461037BD4680BD80B584B000AFF86082
:1059D000B9607A602DE0F86800F0CEF80346002B3D
:1059E00001D001232DE0BB68B3F1FF3F21D0FDF7CB
:1059F00019FF02467B68D31ABA689A4202D3BB6881
:105A0000002B16D1FB6800221A63FB68202283F862
:105A10003D20FB68002283F83E20FB681B6C43F0AE
:105A20002002FB681A64FB68002283F83C200123F3
:105A300007E0FB681B685B6903F08003802BCAD119
:105A4000002318461037BD4680BD80B584B000AF36
:105A5000F860B9607A602DE0F86800F08DF80346D0
:105A6000002B01D001232DE0BB68B3F1FF3F21D013
:105A7000FDF7D8FE02467B68D31ABA689A4202D371
:105A8000BB68002B16D1FB6800221A63FB6820223A
:105A900083F83D20FB68002283F83E20FB681B6CE6
:105AA00043F02002FB681A64FB68002283F83C2064
:105AB000012307E0FB681B685B6903F00403042B08
:105AC000CAD1002318461037BD4680BD80B584B0CA
:105AD00000AFF860B9607A6042E0FB681B685B6900
